{"abi":[{"type":"function","name":"getEventCounter","inputs":[],"outputs":[{"name":"","type":"uint256","internalType":"uint256"}],"stateMutability":"view"},{"type":"function","name":"getNextEventId","inputs":[],"outputs":[{"name":"","type":"uint256","internalType":"uint256"}],"stateMutability":"view"}],"bytecode":{"object":"0x6080604052348015600e575f5ffd5b506101128061001c5f395ff3fe6080604052348015600e575f5ffd5b50600436106030575f3560e01c80633c82a9781460345780639df5be6e14604e575b5f5ffd5b603a6068565b6040516045919060c5565b60405180910390f35b60546074565b604051605f919060c5565b60405180910390f35b5f606f6074565b905090565b5f607b6083565b5f0154905090565b5f5f7f424e67de01535191ae441dac30ebc840d30f78dda500964a3abe35b40c86270c90508091505090565b5f819050919050565b60bf8160af565b82525050565b5f60208201905060d65f83018460b8565b9291505056fea2646970667358221220e079689359e10c6f6afe1b6964da252da7444fa45956d2ae34e29a451bf8f12c64736f6c63430008210033","linkReferences":{}},"methodIdentifiers":{"getEventCounter()":"3c82a978","getNextEventId()":"9df5be6e"},"id":44}