{"abi":[{"type":"function","name":"getOpResultHandle","inputs":[{"name":"op","type":"uint8","internalType":"enum EOps"},{"name":"returnType","type":"uint8","internalType":"enum ETypes"},{"name":"packedInputs","type":"bytes","internalType":"bytes"}],"outputs":[{"name":"generatedHandle","type":"bytes32","internalType":"bytes32"}],"stateMutability":"pure"},{"type":"function","name":"getTrivialEncryptHandle","inputs":[{"name":"plaintextBytes","type":"bytes32","internalType":"bytes32"},{"name":"handleType","type":"uint8","internalType":"enum ETypes"}],"outputs":[{"name":"generatedHandle","type":"bytes32","internalType":"bytes32"}],"stateMutability":"pure"}],"bytecode":{"object":"0x6080604052348015600e575f5ffd5b506105968061001c5f395ff3fe608060405234801561000f575f5ffd5b5060043610610034575f3560e01c80635ac0cb9014610038578063a8c3dc9e14610068575b5f5ffd5b610052600480360381019061004d91906102ff565b610098565b60405161005f9190610383565b60405180910390f35b610082600480360381019061007d91906103c6565b6100d4565b60405161008f9190610383565b60405180910390f35b5f6100cb84836040516020016100af9291906104ee565b6040516020818303038152906040528051906020012084610113565b90509392505050565b5f6018836040516020016100e9929190610535565b60405160208183030381529060405280519060200120905061010b8183610113565b905092915050565b5f7fffffffffffffffffffffffffffffffffffffffffffffffffffffffffffff00005f1b8316905060088260648111156101505761014f610404565b5b901b815f1c175f1b90505f60ff16815f1c175f1b905092915050565b5f604051905090565b5f5ffd5b5f5ffd5b606f8110610189575f5ffd5b50565b5f8135905061019a8161017d565b92915050565b606581106101ac575f5ffd5b50565b5f813590506101bd816101a0565b92915050565b5f5ffd5b5f5ffd5b5f601f19601f8301169050919050565b7f4e487b71000000000000000000000000000000000000000000000000000000005f52604160045260245ffd5b610211826101cb565b810181811067ffffffffffffffff821117156102305761022f6101db565b5b80604052505050565b5f61024261016c565b905061024e8282610208565b919050565b5f67ffffffffffffffff82111561026d5761026c6101db565b5b610276826101cb565b9050602081019050919050565b828183375f83830152505050565b5f6102a361029e84610253565b610239565b9050828152602081018484840111156102bf576102be6101c7565b5b6102ca848285610283565b509392505050565b5f82601f8301126102e6576102e56101c3565b5b81356102f6848260208601610291565b91505092915050565b5f5f5f6060848603121561031657610315610175565b5b5f6103238682870161018c565b9350506020610334868287016101af565b925050604084013567ffffffffffffffff81111561035557610354610179565b5b610361868287016102d2565b9150509250925092565b5f819050919050565b61037d8161036b565b82525050565b5f6020820190506103965f830184610374565b92915050565b6103a58161036b565b81146103af575f5ffd5b50565b5f813590506103c08161039c565b92915050565b5f5f604083850312156103dc576103db610175565b5b5f6103e9858286016103b2565b92505060206103fa858286016101af565b9150509250929050565b7f4e487b71000000000000000000000000000000000000000000000000000000005f52602160045260245ffd5b606f811061044257610441610404565b5b50565b5f81905061045282610431565b919050565b5f61046182610445565b9050919050565b5f8160f81b9050919050565b5f61047e82610468565b9050919050565b61049661049182610457565b610474565b82525050565b5f81519050919050565b5f81905092915050565b8281835e5f83830152505050565b5f6104c88261049c565b6104d281856104a6565b93506104e28185602086016104b0565b80840191505092915050565b5f6104f98285610485565b60018201915061050982846104be565b91508190509392505050565b5f819050919050565b61052f61052a8261036b565b610515565b82525050565b5f6105408285610485565b600182019150610550828461051e565b602082019150819050939250505056fea264697066735822122018e7ca165406ca4c42cc52e413deae2dd18dd228ee67453e8484553f7cc39c6d64736f6c63430008210033","linkReferences":{}},"methodIdentifiers":{"getOpResultHandle(uint8,uint8,bytes)":"5ac0cb90","getTrivialEncryptHandle(bytes32,uint8)":"a8c3dc9e"},"id":45}