{"abi":[{"type":"constructor","inputs":[],"stateMutability":"nonpayable"},{"type":"function","name":"accessGranted","inputs":[{"name":"","type":"address","internalType":"address"}],"outputs":[{"name":"","type":"bool","internalType":"bool"}],"stateMutability":"view"},{"type":"function","name":"allowScoreAccess","inputs":[{"name":"user","type":"address","internalType":"address"}],"outputs":[],"stateMutability":"nonpayable"},{"type":"function","name":"checkAccess","inputs":[],"outputs":[],"stateMutability":"nonpayable"},{"type":"function","name":"getEncryptedScore","inputs":[{"name":"user","type":"address","internalType":"address"}],"outputs":[{"name":"","type":"bytes32","internalType":"euint256"}],"stateMutability":"view"},{"type":"function","name":"hasScore","inputs":[{"name":"","type":"address","internalType":"address"}],"outputs":[{"name":"","type":"bool","internalType":"bool"}],"stateMutability":"view"},{"type":"function","name":"owner","inputs":[],"outputs":[{"name":"","type":"address","internalType":"address"}],"stateMutability":"view"},{"type":"function","name":"storeEncryptedScore","inputs":[{"name":"scoreInput","type":"bytes","internalType":"bytes"}],"outputs":[],"stateMutability":"payable"},{"type":"function","name":"updateThreshold","inputs":[{"name":"thresholdInput","type":"bytes","internalType":"bytes"}],"outputs":[],"stateMutability":"payable"},{"type":"event","name":"AccessChecked","inputs":[{"name":"user","type":"address","indexed":true,"internalType":"address"},{"name":"granted","type":"bool","indexed":false,"internalType":"bool"},{"name":"timestamp","type":"uint256","indexed":false,"internalType":"uint256"}],"anonymous":false},{"type":"event","name":"ScoreEncrypted","inputs":[{"name":"user","type":"address","indexed":true,"internalType":"address"},{"name":"timestamp","type":"uint256","indexed":false,"internalType":"uint256"}],"anonymous":false},{"type":"event","name":"ThresholdUpdated","inputs":[{"name":"timestamp","type":"uint256","indexed":false,"internalType":"uint256"}],"anonymous":false}],"bytecode":{"object":"0x608060405234801561000f575f5ffd5b50335f5f6101000a81548173ffffffffffffffffffffffffffffffffffffffff021916908373ffffffffffffffffffffffffffffffffffffffff16021790555061005f603261007b60201b60201c565b60038190555061007660035461011060201b60201c565b6102ab565b5f73168fdc3ae19a5d5b03614578c58974ff30fcbe9273ffffffffffffffffffffffffffffffffffffffff166367e7a37e836040518263ffffffff1660e01b81526004016100c991906101bb565b6020604051808303815f875af11580156100e5573d5f5f3e3d5ffd5b505050506040513d601f19601f82011682018060405250810190610109919061020b565b9050919050565b610120813061012360201b60201c565b50565b73168fdc3ae19a5d5b03614578c58974ff30fcbe9273ffffffffffffffffffffffffffffffffffffffff1663b9496b6283836040518363ffffffff1660e01b8152600401610172929190610284565b5f604051808303815f87803b158015610189575f5ffd5b505af115801561019b573d5f5f3e3d5ffd5b505050505050565b5f819050919050565b6101b5816101a3565b82525050565b5f6020820190506101ce5f8301846101ac565b92915050565b5f5ffd5b5f819050919050565b6101ea816101d8565b81146101f4575f5ffd5b50565b5f81519050610205816101e1565b92915050565b5f602082840312156102205761021f6101d4565b5b5f61022d848285016101f7565b91505092915050565b61023f816101d8565b82525050565b5f73ffffffffffffffffffffffffffffffffffffffff82169050919050565b5f61026e82610245565b9050919050565b61027e81610264565b82525050565b5f6040820190506102975f830185610236565b6102a46020830184610275565b9392505050565b611449806102b85f395ff3fe60806040526004361061007a575f3560e01c80638da5cb5b1161004d5780638da5cb5b1461014e578063a3f4edde14610178578063e61c99be14610194578063ecb10135146101bc5761007a565b806324a573ca1461007e5780633ac757f4146100ba578063578e4295146100d65780635b8cdd0b14610112575b5f5ffd5b348015610089575f5ffd5b506100a4600480360381019061009f9190610dd6565b6101d2565b6040516100b19190610e2a565b60405180910390f35b6100d460048036038101906100cf9190610f7f565b6102a1565b005b3480156100e1575f5ffd5b506100fc60048036038101906100f79190610dd6565b61047f565b6040516101099190610fe0565b60405180910390f35b34801561011d575f5ffd5b5061013860048036038101906101339190610dd6565b61049c565b6040516101459190610fe0565b60405180910390f35b348015610159575f5ffd5b506101626104b9565b60405161016f9190611008565b60405180910390f35b610192600480360381019061018d9190610f7f565b6104dd565b005b34801561019f575f5ffd5b506101ba60048036038101906101b59190610dd6565b610691565b005b3480156101c7575f5ffd5b506101d06107db565b005b5f60025f8373ffffffffffffffffffffffffffffffffffffffff1673ffffffffffffffffffffffffffffffffffffffff1681526020019081526020015f205f9054906101000a900460ff1661025c576040517f08c379a00000000000000000000000000000000000000000000000000000000081526004016102539061107b565b60405180910390fd5b60015f8373ffffffffffffffffffffffffffffffffffffffff1673ffffffffffffffffffffffffffffffffffffffff1681526020019081526020015f20549050919050565b73168fdc3ae19a5d5b03614578c58974ff30fcbe9273ffffffffffffffffffffffffffffffffffffffff1663ced72f876040518163ffffffff1660e01b8152600401602060405180830381865afa1580156102fe573d5f5f3e3d5ffd5b505050506040513d601f19601f8201168201806040525081019061032291906110cc565b341015610364576040517f08c379a000000000000000000000000000000000000000000000000000000000815260040161035b90611141565b60405180910390fd5b5f61037833836109c690919063ffffffff16565b90508060015f3373ffffffffffffffffffffffffffffffffffffffff1673ffffffffffffffffffffffffffffffffffffffff1681526020019081526020015f2081905550600160025f3373ffffffffffffffffffffffffffffffffffffffff1673ffffffffffffffffffffffffffffffffffffffff1681526020019081526020015f205f6101000a81548160ff0219169083151502179055506104243382610ae090919063ffffffff16565b61042d81610b60565b3373ffffffffffffffffffffffffffffffffffffffff167ff1093a0ce9ff03a1585dfd75d0d12e54632faaee6c7bba5293abfe360157e83842604051610473919061116e565b60405180910390a25050565b6002602052805f5260405f205f915054906101000a900460ff1681565b6004602052805f5260405f205f915054906101000a900460ff1681565b5f5f9054906101000a900473ffffffffffffffffffffffffffffffffffffffff1681565b5f5f9054906101000a900473ffffffffffffffffffffffffffffffffffffffff1673ffffffffffffffffffffffffffffffffffffffff163373ffffffffffffffffffffffffffffffffffffffff161461056b576040517f08c379a0000000000000000000000000000000000000000000000000000000008152600401610562906111d1565b60405180910390fd5b73168fdc3ae19a5d5b03614578c58974ff30fcbe9273ffffffffffffffffffffffffffffffffffffffff1663ced72f876040518163ffffffff1660e01b8152600401602060405180830381865afa1580156105c8573d5f5f3e3d5ffd5b505050506040513d601f19601f820116820180604052508101906105ec91906110cc565b34101561062e576040517f08c379a000000000000000000000000000000000000000000000000000000000815260040161062590611141565b60405180910390fd5b5f61064233836109c690919063ffffffff16565b905080600381905550610656600354610b60565b7fadfa8ecb21b6962ebcd0adbd9ab985b7b4c5b5eb3b0dead683171565c7bfe17142604051610685919061116e565b60405180910390a15050565b8073ffffffffffffffffffffffffffffffffffffffff163373ffffffffffffffffffffffffffffffffffffffff16146106ff576040517f08c379a00000000000000000000000000000000000000000000000000000000081526004016106f690611239565b60405180910390fd5b60025f8273ffffffffffffffffffffffffffffffffffffffff1673ffffffffffffffffffffffffffffffffffffffff1681526020019081526020015f205f9054906101000a900460ff16610788576040517f08c379a000000000000000000000000000000000000000000000000000000000815260040161077f9061107b565b60405180910390fd5b6107d88160015f8473ffffffffffffffffffffffffffffffffffffffff1673ffffffffffffffffffffffffffffffffffffffff1681526020019081526020015f2054610ae090919063ffffffff16565b50565b60025f3373ffffffffffffffffffffffffffffffffffffffff1673ffffffffffffffffffffffffffffffffffffffff1681526020019081526020015f205f9054906101000a900460ff16610864576040517f08c379a000000000000000000000000000000000000000000000000000000000815260040161085b9061107b565b60405180910390fd5b5f6108b760035460015f3373ffffffffffffffffffffffffffffffffffffffff1673ffffffffffffffffffffffffffffffffffffffff1681526020019081526020015f2054610b6d90919063ffffffff16565b90506108cc3382610c1590919063ffffffff16565b6108d581610c95565b600160045f3373ffffffffffffffffffffffffffffffffffffffff1673ffffffffffffffffffffffffffffffffffffffff1681526020019081526020015f205f6101000a81548160ff0219169083151502179055503373ffffffffffffffffffffffffffffffffffffffff167f73e627aeec4dc4f1b28c0c8b0ab72ce878c21c9adfbd836e24dc7e9cce7e6b5760045f3373ffffffffffffffffffffffffffffffffffffffff1673ffffffffffffffffffffffffffffffffffffffff1681526020019081526020015f205f9054906101000a900460ff16426040516109bb929190611257565b60405180910390a250565b5f73168fdc3ae19a5d5b03614578c58974ff30fcbe9273ffffffffffffffffffffffffffffffffffffffff1663ba76f2a973168fdc3ae19a5d5b03614578c58974ff30fcbe9273ffffffffffffffffffffffffffffffffffffffff1663ced72f876040518163ffffffff1660e01b8152600401602060405180830381865afa158015610a54573d5f5f3e3d5ffd5b505050506040513d601f19601f82011682018060405250810190610a7891906110cc565b85856040518463ffffffff1660e01b8152600401610a979291906112de565b60206040518083038185885af1158015610ab3573d5f5f3e3d5ffd5b50505050506040513d601f19601f82011682018060405250810190610ad89190611336565b905092915050565b73168fdc3ae19a5d5b03614578c58974ff30fcbe9273ffffffffffffffffffffffffffffffffffffffff1663b9496b6283836040518363ffffffff1660e01b8152600401610b2f929190611370565b5f604051808303815f87803b158015610b46575f5ffd5b505af1158015610b58573d5f5f3e3d5ffd5b505050505050565b610b6a8130610ae0565b50565b5f73168fdc3ae19a5d5b03614578c58974ff30fcbe9273ffffffffffffffffffffffffffffffffffffffff16638ff94ab4610ba785610ca2565b610bb085610ca2565b6040518363ffffffff1660e01b8152600401610bcd929190611397565b6020604051808303815f875af1158015610be9573d5f5f3e3d5ffd5b505050506040513d601f19601f82011682018060405250810190610c0d91906113e8565b905092915050565b73168fdc3ae19a5d5b03614578c58974ff30fcbe9273ffffffffffffffffffffffffffffffffffffffff1663b9496b6283836040518363ffffffff1660e01b8152600401610c64929190611370565b5f604051808303815f87803b158015610c7b575f5ffd5b505af1158015610c8d573d5f5f3e3d5ffd5b505050505050565b610c9f8130610c15565b50565b5f610cac82610cb3565b9050919050565b5f5f5f1b8203610ccd57610cc65f610cd6565b9050610cd1565b8190505b919050565b5f73168fdc3ae19a5d5b03614578c58974ff30fcbe9273ffffffffffffffffffffffffffffffffffffffff166367e7a37e836040518263ffffffff1660e01b8152600401610d24919061116e565b6020604051808303815f875af1158015610d40573d5f5f3e3d5ffd5b505050506040513d601f19601f82011682018060405250810190610d649190611336565b9050919050565b5f604051905090565b5f5ffd5b5f5ffd5b5f73ffffffffffffffffffffffffffffffffffffffff82169050919050565b5f610da582610d7c565b9050919050565b610db581610d9b565b8114610dbf575f5ffd5b50565b5f81359050610dd081610dac565b92915050565b5f60208284031215610deb57610dea610d74565b5b5f610df884828501610dc2565b91505092915050565b5f819050919050565b5f610e1482610e01565b9050919050565b610e2481610e0a565b82525050565b5f602082019050610e3d5f830184610e1b565b92915050565b5f5ffd5b5f5ffd5b5f601f19601f8301169050919050565b7f4e487b71000000000000000000000000000000000000000000000000000000005f52604160045260245ffd5b610e9182610e4b565b810181811067ffffffffffffffff82111715610eb057610eaf610e5b565b5b80604052505050565b5f610ec2610d6b565b9050610ece8282610e88565b919050565b5f67ffffffffffffffff821115610eed57610eec610e5b565b5b610ef682610e4b565b9050602081019050919050565b828183375f83830152505050565b5f610f23610f1e84610ed3565b610eb9565b905082815260208101848484011115610f3f57610f3e610e47565b5b610f4a848285610f03565b509392505050565b5f82601f830112610f6657610f65610e43565b5b8135610f76848260208601610f11565b91505092915050565b5f60208284031215610f9457610f93610d74565b5b5f82013567ffffffffffffffff811115610fb157610fb0610d78565b5b610fbd84828501610f52565b91505092915050565b5f8115159050919050565b610fda81610fc6565b82525050565b5f602082019050610ff35f830184610fd1565b92915050565b61100281610d9b565b82525050565b5f60208201905061101b5f830184610ff9565b92915050565b5f82825260208201905092915050565b7f4e6f2073636f72652073746f72656400000000000000000000000000000000005f82015250565b5f611065600f83611021565b915061107082611031565b602082019050919050565b5f6020820190508181035f83015261109281611059565b9050919050565b5f819050919050565b6110ab81611099565b81146110b5575f5ffd5b50565b5f815190506110c6816110a2565b92915050565b5f602082840312156110e1576110e0610d74565b5b5f6110ee848285016110b8565b91505092915050565b7f496e73756666696369656e7420666565000000000000000000000000000000005f82015250565b5f61112b601083611021565b9150611136826110f7565b602082019050919050565b5f6020820190508181035f8301526111588161111f565b9050919050565b61116881611099565b82525050565b5f6020820190506111815f83018461115f565b92915050565b7f4e6f74206f776e657200000000000000000000000000000000000000000000005f82015250565b5f6111bb600983611021565b91506111c682611187565b602082019050919050565b5f6020820190508181035f8301526111e8816111af565b9050919050565b7f43616e206f6e6c7920616c6c6f77206f776e2073636f726500000000000000005f82015250565b5f611223601883611021565b915061122e826111ef565b602082019050919050565b5f6020820190508181035f83015261125081611217565b9050919050565b5f60408201905061126a5f830185610fd1565b611277602083018461115f565b9392505050565b5f81519050919050565b5f82825260208201905092915050565b8281835e5f83830152505050565b5f6112b08261127e565b6112ba8185611288565b93506112ca818560208601611298565b6112d381610e4b565b840191505092915050565b5f6040820190508181035f8301526112f681856112a6565b90506113056020830184610ff9565b9392505050565b61131581610e01565b811461131f575f5ffd5b50565b5f815190506113308161130c565b92915050565b5f6020828403121561134b5761134a610d74565b5b5f61135884828501611322565b91505092915050565b61136a81610e01565b82525050565b5f6040820190506113835f830185611361565b6113906020830184610ff9565b9392505050565b5f6040820190506113aa5f830185610e1b565b6113b76020830184610e1b565b9392505050565b6113c781610e01565b81146113d1575f5ffd5b50565b5f815190506113e2816113be565b92915050565b5f602082840312156113fd576113fc610d74565b5b5f61140a848285016113d4565b9150509291505056fea264697066735822122096da0438d553dd0cf40df76d9951cf5bf3746b1aa38b9416be63adb5c701211364736f6c63430008210033","linkReferences":{}},"methodIdentifiers":{"accessGranted(address)":"5b8cdd0b","allowScoreAccess(address)":"e61c99be","checkAccess()":"ecb10135","getEncryptedScore(address)":"24a573ca","hasScore(address)":"578e4295","owner()":"8da5cb5b","storeEncryptedScore(bytes)":"3ac757f4","updateThreshold(bytes)":"a3f4edde"},"id":75}