{"abi":[{"type":"constructor","inputs":[{"name":"_majorVersion","type":"uint8","internalType":"uint8"},{"name":"_minorVersion","type":"uint8","internalType":"uint8"},{"name":"_patchVersion","type":"uint8","internalType":"uint8"},{"name":"_salt","type":"bytes32","internalType":"bytes32"},{"name":"_name","type":"string","internalType":"string"}],"stateMutability":"nonpayable"},{"type":"function","name":"getMajorVersion","inputs":[],"outputs":[{"name":"","type":"string","internalType":"string"}],"stateMutability":"view"},{"type":"function","name":"getName","inputs":[],"outputs":[{"name":"","type":"string","internalType":"string"}],"stateMutability":"view"},{"type":"function","name":"getVersion","inputs":[],"outputs":[{"name":"","type":"string","internalType":"string"}],"stateMutability":"view"},{"type":"function","name":"getVersionedName","inputs":[],"outputs":[{"name":"","type":"string","internalType":"string"}],"stateMutability":"view"},{"type":"function","name":"majorVersion","inputs":[],"outputs":[{"name":"","type":"uint8","internalType":"uint8"}],"stateMutability":"view"},{"type":"function","name":"minorVersion","inputs":[],"outputs":[{"name":"","type":"uint8","internalType":"uint8"}],"stateMutability":"view"},{"type":"function","name":"patchVersion","inputs":[],"outputs":[{"name":"","type":"uint8","internalType":"uint8"}],"stateMutability":"view"},{"type":"function","name":"salt","inputs":[],"outputs":[{"name":"","type":"bytes32","internalType":"bytes32"}],"stateMutability":"view"},{"type":"error","name":"InvalidShortString","inputs":[]},{"type":"error","name":"StringTooLong","inputs":[{"name":"str","type":"string","internalType":"string"}]}],"bytecode":{"object":"0x610120604052348015610010575f5ffd5b50604051610e49380380610e49833981810160405281019061003291906102a0565b8460ff1660808160ff16815250508360ff1660a08160ff16815250508260ff1660c08160ff16815250508160e081815250506100738161008560201b60201c565b61010081815250505050505050610444565b5f5f829050601f815111156100d157826040517f305a27a90000000000000000000000000000000000000000000000000000000081526004016100c89190610385565b60405180910390fd5b8051816100dd906103de565b5f1c175f1b915050919050565b5f604051905090565b5f5ffd5b5f5ffd5b5f60ff82169050919050565b610110816100fb565b811461011a575f5ffd5b50565b5f8151905061012b81610107565b92915050565b5f819050919050565b61014381610131565b811461014d575f5ffd5b50565b5f8151905061015e8161013a565b92915050565b5f5ffd5b5f5ffd5b5f601f19601f8301169050919050565b7f4e487b71000000000000000000000000000000000000000000000000000000005f52604160045260245ffd5b6101b28261016c565b810181811067ffffffffffffffff821117156101d1576101d061017c565b5b80604052505050565b5f6101e36100ea565b90506101ef82826101a9565b919050565b5f67ffffffffffffffff82111561020e5761020d61017c565b5b6102178261016c565b9050602081019050919050565b8281835e5f83830152505050565b5f61024461023f846101f4565b6101da565b9050828152602081018484840111156102605761025f610168565b5b61026b848285610224565b509392505050565b5f82601f83011261028757610286610164565b5b8151610297848260208601610232565b91505092915050565b5f5f5f5f5f60a086880312156102b9576102b86100f3565b5b5f6102c68882890161011d565b95505060206102d78882890161011d565b94505060406102e88882890161011d565b93505060606102f988828901610150565b925050608086015167ffffffffffffffff81111561031a576103196100f7565b5b61032688828901610273565b9150509295509295909350565b5f81519050919050565b5f82825260208201905092915050565b5f61035782610333565b610361818561033d565b9350610371818560208601610224565b61037a8161016c565b840191505092915050565b5f6020820190508181035f83015261039d818461034d565b905092915050565b5f81519050919050565b5f819050602082019050919050565b5f6103c98251610131565b80915050919050565b5f82821b905092915050565b5f6103e8826103a5565b826103f2846103af565b90506103fd816103be565b9250602082101561043d576104387fffffffffffffffffffffffffffffffffffffffffffffffffffffffffffffffff836020036008026103d2565b831692505b5050919050565b60805160a05160c05160e051610100516109a56104a45f395f6101f301525f818161029401526102f501525f81816101c3015261024601525f81816101a2015261021f01525f81816101810152818161026d01526102bf01526109a55ff3fe608060405234801561000f575f5ffd5b5060043610610086575f3560e01c8063af05a5c511610059578063af05a5c514610102578063bfa0b13314610120578063cde749f41461013e578063ddee96ef1461015c57610086565b80630d8e6e2c1461008a57806317d7de7c146100a85780637436f3dc146100c657806385464ae5146100e4575b5f5ffd5b61009261017a565b60405161009f91906106fd565b60405180910390f35b6100b06101ec565b6040516100bd91906106fd565b60405180910390f35b6100ce61021c565b6040516100db9190610738565b60405180910390f35b6100ec610243565b6040516100f99190610738565b60405180910390f35b61010a61026a565b6040516101179190610738565b60405180910390f35b610128610291565b6040516101359190610769565b60405180910390f35b6101466102b8565b60405161015391906106fd565b60405180910390f35b6101646102eb565b60405161017191906106fd565b60405180910390f35b60606101e77f00000000000000000000000000000000000000000000000000000000000000007f00000000000000000000000000000000000000000000000000000000000000007f0000000000000000000000000000000000000000000000000000000000000000610362565b905090565b60606102177f00000000000000000000000000000000000000000000000000000000000000006103b2565b905090565b5f7f0000000000000000000000000000000000000000000000000000000000000000905090565b5f7f0000000000000000000000000000000000000000000000000000000000000000905090565b5f7f0000000000000000000000000000000000000000000000000000000000000000905090565b5f7f0000000000000000000000000000000000000000000000000000000000000000905090565b60606102e67f000000000000000000000000000000000000000000000000000000000000000060ff16610424565b905090565b60605f633b9aca007f00000000000000000000000000000000000000000000000000000000000000005f1c61032091906107b8565b905061032a6101ec565b61033261017a565b61033b83610424565b60405160200161034d939291906108b6565b60405160208183030381529060405291505090565b60606103708460ff16610424565b61037c8460ff16610424565b6103888460ff16610424565b60405160200161039a939291906108fc565b60405160208183030381529060405290509392505050565b60605f6103be836104ee565b90505f602067ffffffffffffffff8111156103dc576103db610942565b5b6040519080825280601f01601f19166020018201604052801561040e5781602001600182028036833780820191505090505b5090508181528360208201528092505050919050565b60605f60016104328461053c565b0190505f8167ffffffffffffffff8111156104505761044f610942565b5b6040519080825280601f01601f1916602001820160405280156104825781602001600182028036833780820191505090505b5090505f82602083010190505b6001156104e3578080600190039150507f3031323334353637383961626364656600000000000000000000000000000000600a86061a8153600a85816104d8576104d761078b565b5b0494505f850361048f575b819350505050919050565b5f5f60ff835f1c169050601f811115610533576040517fb3512b0c00000000000000000000000000000000000000000000000000000000815260040160405180910390fd5b80915050919050565b5f5f5f90507a184f03e93ff9f4daa797ed6e38ed64bf6a1f0100000000000000008310610598577a184f03e93ff9f4daa797ed6e38ed64bf6a1f010000000000000000838161058e5761058d61078b565b5b0492506040810190505b6d04ee2d6d415b85acef810000000083106105d5576d04ee2d6d415b85acef810000000083816105cb576105ca61078b565b5b0492506020810190505b662386f26fc10000831061060457662386f26fc1000083816105fa576105f961078b565b5b0492506010810190505b6305f5e100831061062d576305f5e10083816106235761062261078b565b5b0492506008810190505b61271083106106525761271083816106485761064761078b565b5b0492506004810190505b60648310610675576064838161066b5761066a61078b565b5b0492506002810190505b600a8310610684576001810190505b80915050919050565b5f81519050919050565b5f82825260208201905092915050565b8281835e5f83830152505050565b5f601f19601f8301169050919050565b5f6106cf8261068d565b6106d98185610697565b93506106e98185602086016106a7565b6106f2816106b5565b840191505092915050565b5f6020820190508181035f83015261071581846106c5565b905092915050565b5f60ff82169050919050565b6107328161071d565b82525050565b5f60208201905061074b5f830184610729565b92915050565b5f819050919050565b61076381610751565b82525050565b5f60208201905061077c5f83018461075a565b92915050565b5f819050919050565b7f4e487b71000000000000000000000000000000000000000000000000000000005f52601260045260245ffd5b5f6107c282610782565b91506107cd83610782565b9250826107dd576107dc61078b565b5b828206905092915050565b5f81905092915050565b5f6107fc8261068d565b61080681856107e8565b93506108168185602086016106a7565b80840191505092915050565b7f5f000000000000000000000000000000000000000000000000000000000000005f82015250565b5f6108566001836107e8565b915061086182610822565b600182019050919050565b7f5f5f0000000000000000000000000000000000000000000000000000000000005f82015250565b5f6108a06002836107e8565b91506108ab8261086c565b600282019050919050565b5f6108c182866107f2565b91506108cc8261084a565b91506108d882856107f2565b91506108e382610894565b91506108ef82846107f2565b9150819050949350505050565b5f61090782866107f2565b91506109128261084a565b915061091e82856107f2565b91506109298261084a565b915061093582846107f2565b9150819050949350505050565b7f4e487b71000000000000000000000000000000000000000000000000000000005f52604160045260245ffdfea26469706673582212200ae9710823ca82d37f9d610837c4cf68f6053277646f79c0c7c6b8d2b967825964736f6c63430008210033","linkReferences":{}},"methodIdentifiers":{"getMajorVersion()":"cde749f4","getName()":"17d7de7c","getVersion()":"0d8e6e2c","getVersionedName()":"ddee96ef","majorVersion()":"af05a5c5","minorVersion()":"7436f3dc","patchVersion()":"85464ae5","salt()":"bfa0b133"},"id":53}