{"abi":[{"type":"constructor","inputs":[{"name":"salt","type":"bytes32","internalType":"bytes32"},{"name":"_incoVerifier","type":"address","internalType":"contract IIncoVerifier"}],"stateMutability":"nonpayable"},{"type":"fallback","stateMutability":"nonpayable"},{"type":"function","name":"UPGRADE_INTERFACE_VERSION","inputs":[],"outputs":[{"name":"","type":"string","internalType":"string"}],"stateMutability":"view"},{"type":"function","name":"allow","inputs":[{"name":"handle","type":"bytes32","internalType":"bytes32"},{"name":"account","type":"address","internalType":"address"}],"outputs":[],"stateMutability":"nonpayable"},{"type":"function","name":"allowTransient","inputs":[{"name":"handle","type":"bytes32","internalType":"bytes32"},{"name":"account","type":"address","internalType":"address"}],"outputs":[],"stateMutability":"nonpayable"},{"type":"function","name":"allowedTransient","inputs":[{"name":"handle","type":"bytes32","internalType":"bytes32"},{"name":"account","type":"address","internalType":"address"}],"outputs":[{"name":"","type":"bool","internalType":"bool"}],"stateMutability":"view"},{"type":"function","name":"asEaddress","inputs":[{"name":"value","type":"address","internalType":"address"}],"outputs":[{"name":"newEaddress","type":"bytes32","internalType":"eaddress"}],"stateMutability":"nonpayable"},{"type":"function","name":"asEbool","inputs":[{"name":"value","type":"bool","internalType":"bool"}],"outputs":[{"name":"newEbool","type":"bytes32","internalType":"ebool"}],"stateMutability":"nonpayable"},{"type":"function","name":"asEuint256","inputs":[{"name":"value","type":"uint256","internalType":"uint256"}],"outputs":[{"name":"newEuint256","type":"bytes32","internalType":"euint256"}],"stateMutability":"nonpayable"},{"type":"function","name":"claimHandle","inputs":[{"name":"handle","type":"bytes32","internalType":"bytes32"},{"name":"proof","type":"tuple","internalType":"struct AllowanceProof","components":[{"name":"sharer","type":"address","internalType":"address"},{"name":"voucher","type":"tuple","internalType":"struct AllowanceVoucher","components":[{"name":"sessionNonce","type":"bytes32","internalType":"bytes32"},{"name":"verifyingContract","type":"address","internalType":"address"},{"name":"callFunction","type":"bytes4","internalType":"bytes4"},{"name":"sharerArgData","type":"bytes","internalType":"bytes"}]},{"name":"voucherSignature","type":"bytes","internalType":"bytes"},{"name":"requesterArgData","type":"bytes","internalType":"bytes"}]}],"outputs":[],"stateMutability":"nonpayable"},{"type":"function","name":"cleanTransientStorage","inputs":[],"outputs":[],"stateMutability":"nonpayable"},{"type":"function","name":"eAdd","inputs":[{"name":"lhs","type":"bytes32","internalType":"euint256"},{"name":"rhs","type":"bytes32","internalType":"euint256"}],"outputs":[{"name":"result","type":"bytes32","internalType":"euint256"}],"stateMutability":"nonpayable"},{"type":"function","name":"eBitAnd","inputs":[{"name":"lhs","type":"bytes32","internalType":"bytes32"},{"name":"rhs","type":"bytes32","internalType":"bytes32"}],"outputs":[{"name":"result","type":"bytes32","internalType":"bytes32"}],"stateMutability":"nonpayable"},{"type":"function","name":"eBitOr","inputs":[{"name":"lhs","type":"bytes32","internalType":"bytes32"},{"name":"rhs","type":"bytes32","internalType":"bytes32"}],"outputs":[{"name":"result","type":"bytes32","internalType":"bytes32"}],"stateMutability":"nonpayable"},{"type":"function","name":"eBitXor","inputs":[{"name":"lhs","type":"bytes32","internalType":"bytes32"},{"name":"rhs","type":"bytes32","internalType":"bytes32"}],"outputs":[{"name":"result","type":"bytes32","internalType":"bytes32"}],"stateMutability":"nonpayable"},{"type":"function","name":"eCast","inputs":[{"name":"ct","type":"bytes32","internalType":"bytes32"},{"name":"toType","type":"uint8","internalType":"enum ETypes"}],"outputs":[{"name":"result","type":"bytes32","internalType":"bytes32"}],"stateMutability":"nonpayable"},{"type":"function","name":"eDiv","inputs":[{"name":"lhs","type":"bytes32","internalType":"euint256"},{"name":"rhs","type":"bytes32","internalType":"euint256"}],"outputs":[{"name":"result","type":"bytes32","internalType":"euint256"}],"stateMutability":"nonpayable"},{"type":"function","name":"eEq","inputs":[{"name":"lhs","type":"bytes32","internalType":"bytes32"},{"name":"rhs","type":"bytes32","internalType":"bytes32"}],"outputs":[{"name":"result","type":"bytes32","internalType":"ebool"}],"stateMutability":"nonpayable"},{"type":"function","name":"eGe","inputs":[{"name":"lhs","type":"bytes32","internalType":"euint256"},{"name":"rhs","type":"bytes32","internalType":"euint256"}],"outputs":[{"name":"result","type":"bytes32","internalType":"ebool"}],"stateMutability":"nonpayable"},{"type":"function","name":"eGt","inputs":[{"name":"lhs","type":"bytes32","internalType":"euint256"},{"name":"rhs","type":"bytes32","internalType":"euint256"}],"outputs":[{"name":"result","type":"bytes32","internalType":"ebool"}],"stateMutability":"nonpayable"},{"type":"function","name":"eIfThenElse","inputs":[{"name":"control","type":"bytes32","internalType":"ebool"},{"name":"ifTrue","type":"bytes32","internalType":"bytes32"},{"name":"ifFalse","type":"bytes32","internalType":"bytes32"}],"outputs":[{"name":"result","type":"bytes32","internalType":"bytes32"}],"stateMutability":"nonpayable"},{"type":"function","name":"eLe","inputs":[{"name":"lhs","type":"bytes32","internalType":"euint256"},{"name":"rhs","type":"bytes32","internalType":"euint256"}],"outputs":[{"name":"result","type":"bytes32","internalType":"ebool"}],"stateMutability":"nonpayable"},{"type":"function","name":"eLt","inputs":[{"name":"lhs","type":"bytes32","internalType":"euint256"},{"name":"rhs","type":"bytes32","internalType":"euint256"}],"outputs":[{"name":"result","type":"bytes32","internalType":"ebool"}],"stateMutability":"nonpayable"},{"type":"function","name":"eMax","inputs":[{"name":"lhs","type":"bytes32","internalType":"euint256"},{"name":"rhs","type":"bytes32","internalType":"euint256"}],"outputs":[{"name":"result","type":"bytes32","internalType":"euint256"}],"stateMutability":"nonpayable"},{"type":"function","name":"eMin","inputs":[{"name":"lhs","type":"bytes32","internalType":"euint256"},{"name":"rhs","type":"bytes32","internalType":"euint256"}],"outputs":[{"name":"result","type":"bytes32","internalType":"euint256"}],"stateMutability":"nonpayable"},{"type":"function","name":"eMul","inputs":[{"name":"lhs","type":"bytes32","internalType":"euint256"},{"name":"rhs","type":"bytes32","internalType":"euint256"}],"outputs":[{"name":"result","type":"bytes32","internalType":"euint256"}],"stateMutability":"nonpayable"},{"type":"function","name":"eNe","inputs":[{"name":"lhs","type":"bytes32","internalType":"bytes32"},{"name":"rhs","type":"bytes32","internalType":"bytes32"}],"outputs":[{"name":"result","type":"bytes32","internalType":"ebool"}],"stateMutability":"nonpayable"},{"type":"function","name":"eNot","inputs":[{"name":"operand","type":"bytes32","internalType":"ebool"}],"outputs":[{"name":"result","type":"bytes32","internalType":"ebool"}],"stateMutability":"nonpayable"},{"type":"function","name":"eRand","inputs":[{"name":"randType","type":"uint8","internalType":"enum ETypes"}],"outputs":[{"name":"result","type":"bytes32","internalType":"bytes32"}],"stateMutability":"payable"},{"type":"function","name":"eRandBounded","inputs":[{"name":"upperBound","type":"bytes32","internalType":"bytes32"},{"name":"randType","type":"uint8","internalType":"enum ETypes"}],"outputs":[{"name":"result","type":"bytes32","internalType":"bytes32"}],"stateMutability":"payable"},{"type":"function","name":"eRem","inputs":[{"name":"lhs","type":"bytes32","internalType":"euint256"},{"name":"rhs","type":"bytes32","internalType":"euint256"}],"outputs":[{"name":"result","type":"bytes32","internalType":"euint256"}],"stateMutability":"nonpayable"},{"type":"function","name":"eRotl","inputs":[{"name":"lhs","type":"bytes32","internalType":"euint256"},{"name":"rhs","type":"bytes32","internalType":"euint256"}],"outputs":[{"name":"result","type":"bytes32","internalType":"euint256"}],"stateMutability":"nonpayable"},{"type":"function","name":"eRotr","inputs":[{"name":"lhs","type":"bytes32","internalType":"euint256"},{"name":"rhs","type":"bytes32","internalType":"euint256"}],"outputs":[{"name":"result","type":"bytes32","internalType":"euint256"}],"stateMutability":"nonpayable"},{"type":"function","name":"eShl","inputs":[{"name":"lhs","type":"bytes32","internalType":"euint256"},{"name":"rhs","type":"bytes32","internalType":"euint256"}],"outputs":[{"name":"result","type":"bytes32","internalType":"euint256"}],"stateMutability":"nonpayable"},{"type":"function","name":"eShr","inputs":[{"name":"lhs","type":"bytes32","internalType":"euint256"},{"name":"rhs","type":"bytes32","internalType":"euint256"}],"outputs":[{"name":"result","type":"bytes32","internalType":"euint256"}],"stateMutability":"nonpayable"},{"type":"function","name":"eSub","inputs":[{"name":"lhs","type":"bytes32","internalType":"euint256"},{"name":"rhs","type":"bytes32","internalType":"euint256"}],"outputs":[{"name":"result","type":"bytes32","internalType":"euint256"}],"stateMutability":"nonpayable"},{"type":"function","name":"getEventCounter","inputs":[],"outputs":[{"name":"","type":"uint256","internalType":"uint256"}],"stateMutability":"view"},{"type":"function","name":"getFee","inputs":[],"outputs":[{"name":"","type":"uint256","internalType":"uint256"}],"stateMutability":"pure"},{"type":"function","name":"getMajorVersion","inputs":[],"outputs":[{"name":"","type":"string","internalType":"string"}],"stateMutability":"view"},{"type":"function","name":"getName","inputs":[],"outputs":[{"name":"","type":"string","internalType":"string"}],"stateMutability":"view"},{"type":"function","name":"getNextEventId","inputs":[],"outputs":[{"name":"","type":"uint256","internalType":"uint256"}],"stateMutability":"view"},{"type":"function","name":"getOpResultHandle","inputs":[{"name":"op","type":"uint8","internalType":"enum EOps"},{"name":"returnType","type":"uint8","internalType":"enum ETypes"},{"name":"packedInputs","type":"bytes","internalType":"bytes"}],"outputs":[{"name":"generatedHandle","type":"bytes32","internalType":"bytes32"}],"stateMutability":"pure"},{"type":"function","name":"getTrivialEncryptHandle","inputs":[{"name":"plaintextBytes","type":"bytes32","internalType":"bytes32"},{"name":"handleType","type":"uint8","internalType":"enum ETypes"}],"outputs":[{"name":"generatedHandle","type":"bytes32","internalType":"bytes32"}],"stateMutability":"pure"},{"type":"function","name":"getVersion","inputs":[],"outputs":[{"name":"","type":"string","internalType":"string"}],"stateMutability":"view"},{"type":"function","name":"getVersionedName","inputs":[],"outputs":[{"name":"","type":"string","internalType":"string"}],"stateMutability":"view"},{"type":"function","name":"incoVerifier","inputs":[],"outputs":[{"name":"","type":"address","internalType":"contract IIncoVerifier"}],"stateMutability":"view"},{"type":"function","name":"initialize","inputs":[{"name":"owner","type":"address","internalType":"address"}],"outputs":[],"stateMutability":"nonpayable"},{"type":"function","name":"isAllowed","inputs":[{"name":"handle","type":"bytes32","internalType":"bytes32"},{"name":"account","type":"address","internalType":"address"}],"outputs":[{"name":"","type":"bool","internalType":"bool"}],"stateMutability":"view"},{"type":"function","name":"isRevealed","inputs":[{"name":"handle","type":"bytes32","internalType":"bytes32"}],"outputs":[{"name":"","type":"bool","internalType":"bool"}],"stateMutability":"view"},{"type":"function","name":"majorVersion","inputs":[],"outputs":[{"name":"","type":"uint8","internalType":"uint8"}],"stateMutability":"view"},{"type":"function","name":"minorVersion","inputs":[],"outputs":[{"name":"","type":"uint8","internalType":"uint8"}],"stateMutability":"view"},{"type":"function","name":"newEaddress","inputs":[{"name":"input","type":"bytes","internalType":"bytes"},{"name":"user","type":"address","internalType":"address"}],"outputs":[{"name":"newValue","type":"bytes32","internalType":"eaddress"}],"stateMutability":"payable"},{"type":"function","name":"newEbool","inputs":[{"name":"input","type":"bytes","internalType":"bytes"},{"name":"user","type":"address","internalType":"address"}],"outputs":[{"name":"newValue","type":"bytes32","internalType":"ebool"}],"stateMutability":"payable"},{"type":"function","name":"newEuint256","inputs":[{"name":"input","type":"bytes","internalType":"bytes"},{"name":"user","type":"address","internalType":"address"}],"outputs":[{"name":"newValue","type":"bytes32","internalType":"euint256"}],"stateMutability":"payable"},{"type":"function","name":"owner","inputs":[],"outputs":[{"name":"","type":"address","internalType":"address"}],"stateMutability":"view"},{"type":"function","name":"patchVersion","inputs":[],"outputs":[{"name":"","type":"uint8","internalType":"uint8"}],"stateMutability":"view"},{"type":"function","name":"persistAllowed","inputs":[{"name":"handle","type":"bytes32","internalType":"bytes32"},{"name":"account","type":"address","internalType":"address"}],"outputs":[{"name":"","type":"bool","internalType":"bool"}],"stateMutability":"view"},{"type":"function","name":"proxiableUUID","inputs":[],"outputs":[{"name":"","type":"bytes32","internalType":"bytes32"}],"stateMutability":"view"},{"type":"function","name":"renounceOwnership","inputs":[],"outputs":[],"stateMutability":"nonpayable"},{"type":"function","name":"reveal","inputs":[{"name":"handle","type":"bytes32","internalType":"bytes32"}],"outputs":[],"stateMutability":"nonpayable"},{"type":"function","name":"salt","inputs":[],"outputs":[{"name":"","type":"bytes32","internalType":"bytes32"}],"stateMutability":"view"},{"type":"function","name":"transferOwnership","inputs":[{"name":"newOwner","type":"address","internalType":"address"}],"outputs":[],"stateMutability":"nonpayable"},{"type":"function","name":"upgradeToAndCall","inputs":[{"name":"newImplementation","type":"address","internalType":"address"},{"name":"data","type":"bytes","internalType":"bytes"}],"outputs":[],"stateMutability":"payable"},{"type":"event","name":"Allow","inputs":[{"name":"handle","type":"bytes32","indexed":false,"internalType":"bytes32"},{"name":"account","type":"address","indexed":false,"internalType":"address"},{"name":"eventId","type":"uint256","indexed":false,"internalType":"uint256"}],"anonymous":false},{"type":"event","name":"EAdd","inputs":[{"name":"lhs","type":"bytes32","indexed":true,"internalType":"euint256"},{"name":"rhs","type":"bytes32","indexed":true,"internalType":"euint256"},{"name":"result","type":"bytes32","indexed":true,"internalType":"euint256"},{"name":"eventId","type":"uint256","indexed":false,"internalType":"uint256"}],"anonymous":false},{"type":"event","name":"EBitAnd","inputs":[{"name":"lhs","type":"bytes32","indexed":true,"internalType":"bytes32"},{"name":"rhs","type":"bytes32","indexed":true,"internalType":"bytes32"},{"name":"result","type":"bytes32","indexed":true,"internalType":"bytes32"},{"name":"eventId","type":"uint256","indexed":false,"internalType":"uint256"}],"anonymous":false},{"type":"event","name":"EBitOr","inputs":[{"name":"lhs","type":"bytes32","indexed":true,"internalType":"bytes32"},{"name":"rhs","type":"bytes32","indexed":true,"internalType":"bytes32"},{"name":"result","type":"bytes32","indexed":true,"internalType":"bytes32"},{"name":"eventId","type":"uint256","indexed":false,"internalType":"uint256"}],"anonymous":false},{"type":"event","name":"EBitXor","inputs":[{"name":"lhs","type":"bytes32","indexed":true,"internalType":"bytes32"},{"name":"rhs","type":"bytes32","indexed":true,"internalType":"bytes32"},{"name":"result","type":"bytes32","indexed":true,"internalType":"bytes32"},{"name":"eventId","type":"uint256","indexed":false,"internalType":"uint256"}],"anonymous":false},{"type":"event","name":"ECast","inputs":[{"name":"ct","type":"bytes32","indexed":true,"internalType":"bytes32"},{"name":"toType","type":"uint8","indexed":true,"internalType":"uint8"},{"name":"result","type":"bytes32","indexed":true,"internalType":"bytes32"},{"name":"eventId","type":"uint256","indexed":false,"internalType":"uint256"}],"anonymous":false},{"type":"event","name":"EDiv","inputs":[{"name":"lhs","type":"bytes32","indexed":true,"internalType":"euint256"},{"name":"rhs","type":"bytes32","indexed":true,"internalType":"euint256"},{"name":"result","type":"bytes32","indexed":true,"internalType":"euint256"},{"name":"eventId","type":"uint256","indexed":false,"internalType":"uint256"}],"anonymous":false},{"type":"event","name":"EEq","inputs":[{"name":"lhs","type":"bytes32","indexed":true,"internalType":"bytes32"},{"name":"rhs","type":"bytes32","indexed":true,"internalType":"bytes32"},{"name":"result","type":"bytes32","indexed":true,"internalType":"ebool"},{"name":"eventId","type":"uint256","indexed":false,"internalType":"uint256"}],"anonymous":false},{"type":"event","name":"EGe","inputs":[{"name":"lhs","type":"bytes32","indexed":true,"internalType":"euint256"},{"name":"rhs","type":"bytes32","indexed":true,"internalType":"euint256"},{"name":"result","type":"bytes32","indexed":true,"internalType":"ebool"},{"name":"eventId","type":"uint256","indexed":false,"internalType":"uint256"}],"anonymous":false},{"type":"event","name":"EGt","inputs":[{"name":"lhs","type":"bytes32","indexed":true,"internalType":"euint256"},{"name":"rhs","type":"bytes32","indexed":true,"internalType":"euint256"},{"name":"result","type":"bytes32","indexed":true,"internalType":"ebool"},{"name":"eventId","type":"uint256","indexed":false,"internalType":"uint256"}],"anonymous":false},{"type":"event","name":"EIfThenElse","inputs":[{"name":"control","type":"bytes32","indexed":false,"internalType":"ebool"},{"name":"ifTrue","type":"bytes32","indexed":true,"internalType":"bytes32"},{"name":"ifFalse","type":"bytes32","indexed":true,"internalType":"bytes32"},{"name":"result","type":"bytes32","indexed":true,"internalType":"bytes32"},{"name":"eventId","type":"uint256","indexed":false,"internalType":"uint256"}],"anonymous":false},{"type":"event","name":"ELe","inputs":[{"name":"lhs","type":"bytes32","indexed":true,"internalType":"euint256"},{"name":"rhs","type":"bytes32","indexed":true,"internalType":"euint256"},{"name":"result","type":"bytes32","indexed":true,"internalType":"ebool"},{"name":"eventId","type":"uint256","indexed":false,"internalType":"uint256"}],"anonymous":false},{"type":"event","name":"ELt","inputs":[{"name":"lhs","type":"bytes32","indexed":true,"internalType":"euint256"},{"name":"rhs","type":"bytes32","indexed":true,"internalType":"euint256"},{"name":"result","type":"bytes32","indexed":true,"internalType":"ebool"},{"name":"eventId","type":"uint256","indexed":false,"internalType":"uint256"}],"anonymous":false},{"type":"event","name":"EMax","inputs":[{"name":"lhs","type":"bytes32","indexed":true,"internalType":"euint256"},{"name":"rhs","type":"bytes32","indexed":true,"internalType":"euint256"},{"name":"result","type":"bytes32","indexed":true,"internalType":"euint256"},{"name":"eventId","type":"uint256","indexed":false,"internalType":"uint256"}],"anonymous":false},{"type":"event","name":"EMin","inputs":[{"name":"lhs","type":"bytes32","indexed":true,"internalType":"euint256"},{"name":"rhs","type":"bytes32","indexed":true,"internalType":"euint256"},{"name":"result","type":"bytes32","indexed":true,"internalType":"euint256"},{"name":"eventId","type":"uint256","indexed":false,"internalType":"uint256"}],"anonymous":false},{"type":"event","name":"EMul","inputs":[{"name":"lhs","type":"bytes32","indexed":true,"internalType":"euint256"},{"name":"rhs","type":"bytes32","indexed":true,"internalType":"euint256"},{"name":"result","type":"bytes32","indexed":true,"internalType":"euint256"},{"name":"eventId","type":"uint256","indexed":false,"internalType":"uint256"}],"anonymous":false},{"type":"event","name":"ENe","inputs":[{"name":"lhs","type":"bytes32","indexed":true,"internalType":"bytes32"},{"name":"rhs","type":"bytes32","indexed":true,"internalType":"bytes32"},{"name":"result","type":"bytes32","indexed":true,"internalType":"ebool"},{"name":"eventId","type":"uint256","indexed":false,"internalType":"uint256"}],"anonymous":false},{"type":"event","name":"ENot","inputs":[{"name":"operand","type":"bytes32","indexed":true,"internalType":"ebool"},{"name":"result","type":"bytes32","indexed":true,"internalType":"ebool"},{"name":"eventId","type":"uint256","indexed":false,"internalType":"uint256"}],"anonymous":false},{"type":"event","name":"ERand","inputs":[{"name":"counter","type":"uint256","indexed":true,"internalType":"uint256"},{"name":"randType","type":"uint8","indexed":false,"internalType":"enum ETypes"},{"name":"result","type":"bytes32","indexed":true,"internalType":"bytes32"},{"name":"eventId","type":"uint256","indexed":false,"internalType":"uint256"}],"anonymous":false},{"type":"event","name":"ERandBounded","inputs":[{"name":"counter","type":"uint256","indexed":true,"internalType":"uint256"},{"name":"randType","type":"uint8","indexed":false,"internalType":"enum ETypes"},{"name":"upperBound","type":"bytes32","indexed":true,"internalType":"bytes32"},{"name":"result","type":"bytes32","indexed":true,"internalType":"bytes32"},{"name":"eventId","type":"uint256","indexed":false,"internalType":"uint256"}],"anonymous":false},{"type":"event","name":"ERem","inputs":[{"name":"lhs","type":"bytes32","indexed":true,"internalType":"euint256"},{"name":"rhs","type":"bytes32","indexed":true,"internalType":"euint256"},{"name":"result","type":"bytes32","indexed":true,"internalType":"euint256"},{"name":"eventId","type":"uint256","indexed":false,"internalType":"uint256"}],"anonymous":false},{"type":"event","name":"ERotl","inputs":[{"name":"lhs","type":"bytes32","indexed":true,"internalType":"euint256"},{"name":"rhs","type":"bytes32","indexed":true,"internalType":"euint256"},{"name":"result","type":"bytes32","indexed":true,"internalType":"euint256"},{"name":"eventId","type":"uint256","indexed":false,"internalType":"uint256"}],"anonymous":false},{"type":"event","name":"ERotr","inputs":[{"name":"lhs","type":"bytes32","indexed":true,"internalType":"euint256"},{"name":"rhs","type":"bytes32","indexed":true,"internalType":"euint256"},{"name":"result","type":"bytes32","indexed":true,"internalType":"euint256"},{"name":"eventId","type":"uint256","indexed":false,"internalType":"uint256"}],"anonymous":false},{"type":"event","name":"EShl","inputs":[{"name":"lhs","type":"bytes32","indexed":true,"internalType":"euint256"},{"name":"rhs","type":"bytes32","indexed":true,"internalType":"euint256"},{"name":"result","type":"bytes32","indexed":true,"internalType":"euint256"},{"name":"eventId","type":"uint256","indexed":false,"internalType":"uint256"}],"anonymous":false},{"type":"event","name":"EShr","inputs":[{"name":"lhs","type":"bytes32","indexed":true,"internalType":"euint256"},{"name":"rhs","type":"bytes32","indexed":true,"internalType":"euint256"},{"name":"result","type":"bytes32","indexed":true,"internalType":"euint256"},{"name":"eventId","type":"uint256","indexed":false,"internalType":"uint256"}],"anonymous":false},{"type":"event","name":"ESub","inputs":[{"name":"lhs","type":"bytes32","indexed":true,"internalType":"euint256"},{"name":"rhs","type":"bytes32","indexed":true,"internalType":"euint256"},{"name":"result","type":"bytes32","indexed":true,"internalType":"euint256"},{"name":"eventId","type":"uint256","indexed":false,"internalType":"uint256"}],"anonymous":false},{"type":"event","name":"Initialized","inputs":[{"name":"version","type":"uint64","indexed":false,"internalType":"uint64"}],"anonymous":false},{"type":"event","name":"NewInput","inputs":[{"name":"result","type":"bytes32","indexed":true,"internalType":"bytes32"},{"name":"contractAddress","type":"address","indexed":true,"internalType":"address"},{"name":"user","type":"address","indexed":true,"internalType":"address"},{"name":"ciphertext","type":"bytes","indexed":false,"internalType":"bytes"},{"name":"eventId","type":"uint256","indexed":false,"internalType":"uint256"}],"anonymous":false},{"type":"event","name":"OwnershipTransferred","inputs":[{"name":"previousOwner","type":"address","indexed":true,"internalType":"address"},{"name":"newOwner","type":"address","indexed":true,"internalType":"address"}],"anonymous":false},{"type":"event","name":"Reveal","inputs":[{"name":"handle","type":"bytes32","indexed":false,"internalType":"bytes32"},{"name":"eventId","type":"uint256","indexed":false,"internalType":"uint256"}],"anonymous":false},{"type":"event","name":"TrivialEncrypt","inputs":[{"name":"result","type":"bytes32","indexed":true,"internalType":"bytes32"},{"name":"plainTextBytes","type":"bytes32","indexed":false,"internalType":"bytes32"},{"name":"handleType","type":"uint8","indexed":false,"internalType":"enum ETypes"},{"name":"eventId","type":"uint256","indexed":false,"internalType":"uint256"}],"anonymous":false},{"type":"event","name":"Upgraded","inputs":[{"name":"implementation","type":"address","indexed":true,"internalType":"address"}],"anonymous":false},{"type":"error","name":"AddressEmptyCode","inputs":[{"name":"target","type":"address","internalType":"address"}]},{"type":"error","name":"ERC1967InvalidImplementation","inputs":[{"name":"implementation","type":"address","internalType":"address"}]},{"type":"error","name":"ERC1967NonPayable","inputs":[]},{"type":"error","name":"ExternalHandleDoesNotMatchComputedHandle","inputs":[{"name":"externalHandle","type":"bytes32","internalType":"bytes32"},{"name":"computedHandle","type":"bytes32","internalType":"bytes32"},{"name":"chainId","type":"uint256","internalType":"uint256"},{"name":"aclAddress","type":"address","internalType":"address"},{"name":"userAddress","type":"address","internalType":"address"},{"name":"contractAddress","type":"address","internalType":"address"}]},{"type":"error","name":"FailedCall","inputs":[]},{"type":"error","name":"FeeNotPaid","inputs":[]},{"type":"error","name":"HandleAlreadyExists","inputs":[{"name":"handle","type":"bytes32","internalType":"bytes32"}]},{"type":"error","name":"InvalidInitialization","inputs":[]},{"type":"error","name":"InvalidShortString","inputs":[]},{"type":"error","name":"NotInitializing","inputs":[]},{"type":"error","name":"OwnableInvalidOwner","inputs":[{"name":"owner","type":"address","internalType":"address"}]},{"type":"error","name":"OwnableUnauthorizedAccount","inputs":[{"name":"account","type":"address","internalType":"address"}]},{"type":"error","name":"ProofVerificationFailed","inputs":[{"name":"verifyingContract","type":"address","internalType":"address"},{"name":"callFunction","type":"bytes4","internalType":"bytes4"},{"name":"argData","type":"bytes","internalType":"bytes"}]},{"type":"error","name":"SenderNotAllowedForHandle","inputs":[{"name":"handle","type":"bytes32","internalType":"bytes32"},{"name":"sender","type":"address","internalType":"address"}]},{"type":"error","name":"StringTooLong","inputs":[{"name":"str","type":"string","internalType":"string"}]},{"type":"error","name":"UUPSUnauthorizedCallContext","inputs":[]},{"type":"error","name":"UUPSUnsupportedProxiableUUID","inputs":[{"name":"slot","type":"bytes32","internalType":"bytes32"}]},{"type":"error","name":"UnexpectedType","inputs":[{"name":"actual","type":"uint8","internalType":"enum ETypes"},{"name":"expectedTypes","type":"bytes32","internalType":"bytes32"}]},{"type":"error","name":"UnsupportedType","inputs":[{"name":"actual","type":"uint8","internalType":"enum ETypes"}]}],"bytecode":{"object":"0x6101606040523073ffffffffffffffffffffffffffffffffffffffff1660a09073ffffffffffffffffffffffffffffffffffffffff16815250348015610043575f5ffd5b5060405161629938038061629983398181016040528101906100659190610235565b60025f6001846040518060400160405280600d81526020017f696e636f4c696768746e696e6700000000000000000000000000000000000000815250858073ffffffffffffffffffffffffffffffffffffffff1660808173ffffffffffffffffffffffffffffffffffffffff1681525050508460ff1660c08160ff16815250508360ff1660e08160ff16815250508260ff166101008160ff168152505081610120818152505061011a8161012e60201b60201c565b6101408181525050505050505050506103a2565b5f5f829050601f8151111561017a57826040517f305a27a900000000000000000000000000000000000000000000000000000000815260040161017191906102e3565b60405180910390fd5b8051816101869061033c565b5f1c175f1b915050919050565b5f5ffd5b5f819050919050565b6101a981610197565b81146101b3575f5ffd5b50565b5f815190506101c4816101a0565b92915050565b5f73ffffffffffffffffffffffffffffffffffffffff82169050919050565b5f6101f3826101ca565b9050919050565b5f610204826101e9565b9050919050565b610214816101fa565b811461021e575f5ffd5b50565b5f8151905061022f8161020b565b92915050565b5f5f6040838503121561024b5761024a610193565b5b5f610258858286016101b6565b925050602061026985828601610221565b9150509250929050565b5f81519050919050565b5f82825260208201905092915050565b8281835e5f83830152505050565b5f601f19601f8301169050919050565b5f6102b582610273565b6102bf818561027d565b93506102cf81856020860161028d565b6102d88161029b565b840191505092915050565b5f6020820190508181035f8301526102fb81846102ab565b905092915050565b5f81519050919050565b5f819050602082019050919050565b5f6103278251610197565b80915050919050565b5f82821b905092915050565b5f61034682610303565b826103508461030d565b905061035b8161031c565b9250602082101561039b576103967fffffffffffffffffffffffffffffffffffffffffffffffffffffffffffffffff83602003600802610330565b831692505b5050919050565b60805160a05160c05160e051610100516101205161014051615e6e61042b5f395f61111a01525f8181612401015261299801525f81816110ea0152611f5d01525f81816110c90152611ec501525f81816110a8015281816121f8015261285d01525f818161350f01528181613564015261375401525f8181612ad801526130560152615e6e5ff3fe6080604052600436106103a5575f3560e01c8063888f0fad116101e6578063c948f8ce1161010c578063e25800ab1161009f578063f2fde38b1161006e578063f2fde38b14610f09578063f4f9966b14610f31578063f7e37faa14610f6d578063fa71e91d14610f95576103a6565b8063e25800ab14610e19578063e7245a4a14610e55578063e9be8faf14610e91578063f106b99a14610ecd576103a6565b8063d9d017f6116100db578063d9d017f614610d4d578063ddee96ef14610d89578063de195e2d14610db3578063e1c3af7f14610def576103a6565b8063c948f8ce14610c81578063cde749f414610cbd578063ced72f8714610ce7578063d321c77a14610d11576103a6565b8063af05a5c511610184578063ba76f2a911610153578063ba76f2a914610bc3578063bfa0b13314610bf3578063c0516afa14610c1d578063c4d66de814610c59576103a6565b8063af05a5c514610b05578063b887d7e314610b2f578063b8b2ab4b14610b6b578063b9496b6214610b9b576103a6565b80638ff94ab4116101c05780638ff94ab414610a395780639df5be6e14610a75578063a8c3dc9e14610a9f578063ad3cb1cc14610adb576103a6565b8063888f0fad146109a35780638da5cb5b146109d35780638e40528c146109fd576103a6565b806356af8c7c116102cb578063715018a6116102695780637436f3dc116102385780637436f3dc146108d757806374b79a5a1461090157806382027b6d1461093d57806385464ae514610979576103a6565b8063715018a61461080d57806371c0803a14610823578063725e1da51461085f5780637406f2801461089b576103a6565b80635d7d5397116102a55780635d7d53971461073157806367e7a37e1461076d5780636a27be85146107a9578063701fd0f1146107e5576103a6565b806356af8c7c1461068957806359928454146106c55780635ac0cb90146106f5576103a6565b80633c82a978116103435780634b2ded1f116103125780634b2ded1f146105cb5780634f1ef2861461060757806352a532d31461062357806352d1902d1461065f576103a6565b80633c82a9781461050d5780633cd8fdac146105375780633e395cec146105675780633ea466391461058f576103a6565b80631e2f86ba1161037f5780631e2f86ba1461044357806321c8769e1461047f578063239f7112146104bb57806335334c23146104f7576103a6565b806305f6c427146103b35780630d8e6e2c146103ef57806317d7de7c14610419576103a6565b5b3480156103b1575f5ffd5b005b3480156103be575f5ffd5b506103d960048036038101906103d49190614701565b610fd1565b6040516103e6919061475f565b60405180910390f35b3480156103fa575f5ffd5b506104036110a1565b60405161041091906147e8565b60405180910390f35b348015610424575f5ffd5b5061042d611113565b60405161043a91906147e8565b60405180910390f35b34801561044e575f5ffd5b506104696004803603810190610464919061488c565b611143565b60405161047691906148e4565b60405180910390f35b34801561048a575f5ffd5b506104a560048036038101906104a09190614701565b6111b2565b6040516104b2919061490c565b60405180910390f35b3480156104c6575f5ffd5b506104e160048036038101906104dc9190614701565b611283565b6040516104ee919061490c565b60405180910390f35b348015610502575f5ffd5b5061050b611354565b005b348015610518575f5ffd5b50610521611381565b60405161052e919061493d565b60405180910390f35b610551600480360381019061054c9190614979565b61138f565b60405161055e91906149c6565b60405180910390f35b348015610572575f5ffd5b5061058d6004803603810190610588919061488c565b6114ef565b005b34801561059a575f5ffd5b506105b560048036038101906105b09190614701565b61154e565b6040516105c2919061490c565b60405180910390f35b3480156105d6575f5ffd5b506105f160048036038101906105ec9190614701565b61161f565b6040516105fe919061490c565b60405180910390f35b610621600480360381019061061c9190614b0b565b6116f0565b005b34801561062e575f5ffd5b5061064960048036038101906106449190614701565b61170f565b604051610656919061490c565b60405180910390f35b34801561066a575f5ffd5b506106736117e0565b60405161068091906149c6565b60405180910390f35b348015610694575f5ffd5b506106af60048036038101906106aa9190614b65565b611811565b6040516106bc91906149c6565b60405180910390f35b6106df60048036038101906106da9190614ba3565b61196b565b6040516106ec91906149c6565b60405180910390f35b348015610700575f5ffd5b5061071b60048036038101906107169190614bf1565b611ab4565b60405161072891906149c6565b60405180910390f35b34801561073c575f5ffd5b5061075760048036038101906107529190614c87565b611af0565b604051610764919061475f565b60405180910390f35b348015610778575f5ffd5b50610793600480360381019061078e9190614cdc565b611b19565b6040516107a0919061490c565b60405180910390f35b3480156107b4575f5ffd5b506107cf60048036038101906107ca9190614d31565b611b2e565b6040516107dc919061475f565b60405180910390f35b3480156107f0575f5ffd5b5061080b60048036038101906108069190614d5c565b611be2565b005b348015610818575f5ffd5b50610821611cdf565b005b34801561082e575f5ffd5b5061084960048036038101906108449190614701565b611cf2565b604051610856919061490c565b60405180910390f35b34801561086a575f5ffd5b5061088560048036038101906108809190614701565b611dc2565b604051610892919061475f565b60405180910390f35b3480156108a6575f5ffd5b506108c160048036038101906108bc9190614d87565b611e92565b6040516108ce9190614dc1565b60405180910390f35b3480156108e2575f5ffd5b506108eb611ec2565b6040516108f89190614df5565b60405180910390f35b34801561090c575f5ffd5b506109276004803603810190610922919061488c565b611ee9565b60405161093491906148e4565b60405180910390f35b348015610948575f5ffd5b50610963600480360381019061095e919061488c565b611f26565b60405161097091906148e4565b60405180910390f35b348015610984575f5ffd5b5061098d611f5a565b60405161099a9190614df5565b60405180910390f35b6109bd60048036038101906109b89190614e0e565b611f81565b6040516109ca9190614dc1565b60405180910390f35b3480156109de575f5ffd5b506109e7611f96565b6040516109f49190614e77565b60405180910390f35b348015610a08575f5ffd5b50610a236004803603810190610a1e9190614701565b611fcb565b604051610a30919061490c565b60405180910390f35b348015610a44575f5ffd5b50610a5f6004803603810190610a5a9190614701565b61209c565b604051610a6c919061475f565b60405180910390f35b348015610a80575f5ffd5b50610a8961216c565b604051610a96919061493d565b60405180910390f35b348015610aaa575f5ffd5b50610ac56004803603810190610ac09190614979565b61217d565b604051610ad291906149c6565b60405180910390f35b348015610ae6575f5ffd5b50610aef6121bc565b604051610afc91906147e8565b60405180910390f35b348015610b10575f5ffd5b50610b196121f5565b604051610b269190614df5565b60405180910390f35b348015610b3a575f5ffd5b50610b556004803603810190610b509190614b65565b61221c565b604051610b6291906149c6565b60405180910390f35b610b856004803603810190610b809190614e0e565b612376565b604051610b92919061475f565b60405180910390f35b348015610ba6575f5ffd5b50610bc16004803603810190610bbc919061488c565b61238a565b005b610bdd6004803603810190610bd89190614e0e565b6123e9565b604051610bea919061490c565b60405180910390f35b348015610bfe575f5ffd5b50610c076123fe565b604051610c1491906149c6565b60405180910390f35b348015610c28575f5ffd5b50610c436004803603810190610c3e9190614b65565b612425565b604051610c50919061475f565b60405180910390f35b348015610c64575f5ffd5b50610c7f6004803603810190610c7a9190614d87565b61257b565b005b348015610c8c575f5ffd5b50610ca76004803603810190610ca29190614b65565b6126fc565b604051610cb491906149c6565b60405180910390f35b348015610cc8575f5ffd5b50610cd1612856565b604051610cde91906147e8565b60405180910390f35b348015610cf2575f5ffd5b50610cfb612889565b604051610d08919061493d565b60405180910390f35b348015610d1c575f5ffd5b50610d376004803603810190610d329190614d5c565b612896565b604051610d4491906148e4565b60405180910390f35b348015610d58575f5ffd5b50610d736004803603810190610d6e9190614e90565b6128ca565b604051610d8091906149c6565b60405180910390f35b348015610d94575f5ffd5b50610d9d61298e565b604051610daa91906147e8565b60405180910390f35b348015610dbe575f5ffd5b50610dd96004803603810190610dd49190614701565b612a05565b604051610de6919061490c565b60405180910390f35b348015610dfa575f5ffd5b50610e03612ad6565b604051610e109190614f3b565b60405180910390f35b348015610e24575f5ffd5b50610e3f6004803603810190610e3a9190614b65565b612afa565b604051610e4c919061475f565b60405180910390f35b348015610e60575f5ffd5b50610e7b6004803603810190610e769190614701565b612c50565b604051610e88919061490c565b60405180910390f35b348015610e9c575f5ffd5b50610eb76004803603810190610eb29190614701565b612d21565b604051610ec4919061475f565b60405180910390f35b348015610ed8575f5ffd5b50610ef36004803603810190610eee9190614979565b612df1565b604051610f0091906149c6565b60405180910390f35b348015610f14575f5ffd5b50610f2f6004803603810190610f2a9190614d87565b612f00565b005b348015610f3c575f5ffd5b50610f576004803603810190610f529190614701565b612f84565b604051610f64919061490c565b60405180910390f35b348015610f78575f5ffd5b50610f936004803603810190610f8e919061510b565b613054565b005b348015610fa0575f5ffd5b50610fbb6004803603810190610fb69190614701565b613162565b604051610fc8919061490c565b60405180910390f35b5f8282610fe782610fe26008613233565b613259565b610ffa81610ff56008613233565b613259565b611027600f5f8787604051602001611013929190615185565b604051602081830303815290604052613315565b92505f61103261216c565b90508385877fc85f019fe65ed84e35561d59944ff3ebf5dfbd1233a064701a03cd650aaa5b7084604051611066919061493d565b60405180910390a461109884826040516020016110849291906151e7565b604051602081830303815290604052613334565b50505092915050565b606061110e7f00000000000000000000000000000000000000000000000000000000000000007f00000000000000000000000000000000000000000000000000000000000000007f000000000000000000000000000000000000000000000000000000000000000061334f565b905090565b606061113e7f000000000000000000000000000000000000000000000000000000000000000061339f565b905090565b5f5f61114d613411565b9050805f015f8581526020019081526020015f205f8473ffffffffffffffffffffffffffffffffffffffff1673ffffffffffffffffffffffffffffffffffffffff1681526020019081526020015f205f9054906101000a900460ff1691505092915050565b5f82826111c8826111c36008613233565b613259565b6111db816111d66008613233565b613259565b6112096002600887876040516020016111f5929190615185565b604051602081830303815290604052613315565b92505f61121461216c565b90508385877f584ccd8f0c3dc19afdc6abaf364b5fe189d78edcc5415841d040b9e3a7038fa184604051611248919061493d565b60405180910390a461127a8482604051602001611266929190615229565b604051602081830303815290604052613334565b50505092915050565b5f8282611299826112946008613233565b613259565b6112ac816112a76008613233565b613259565b6112da6009600887876040516020016112c6929190615185565b604051602081830303815290604052613315565b92505f6112e561216c565b90508385877fc624068c3cc9d68ac1dfb859360f784b6bff86ea719eebd8ed5597a0f7fab96284604051611319919061493d565b60405180910390a461134b8482604051602001611337929190615229565b604051602081830303815290604052613334565b50505092915050565b5f5c5f5f5d6001810160015b8181101561137c57805c5f825d5f815d50600181019050611360565b505050565b5f61138a61216c565b905090565b5f655af3107a400034146113cf576040517f0590fdf300000000000000000000000000000000000000000000000000000000815260040160405180910390fd5b6113d88261343d565b829061141a576040517f226df3e600000000000000000000000000000000000000000000000000000000815260040161141191906152c7565b60405180910390fd5b5061142e836114296008613233565b613259565b5f5f81548092919061143f9061530d565b9190505550611474601b835f545f1b86604051602001611460929190615185565b604051602081830303815290604052613315565b90505f61147f61216c565b905081845f547f6e799a27f1cbd01a431a624b25fc68bb220eceb4be9478d643a62ca5c6b1262b86856040516114b6929190615354565b60405180910390a46114e882826040516020016114d492919061537b565b604051602081830303815290604052613334565b5092915050565b6114f98233611f26565b8233909161153e576040517f9532b4b60000000000000000000000000000000000000000000000000000000081526004016115359291906153a6565b60405180910390fd5b505061154a82826134ca565b5050565b5f82826115648261155f6008613233565b613259565b611577816115726008613233565b613259565b6115a5601260088787604051602001611591929190615185565b604051602081830303815290604052613315565b92505f6115b061216c565b90508385877f916d7264d60c2e1c2dadf95876b6619f97e75044b3ff9e12c1575a4b8f6f7c41846040516115e4919061493d565b60405180910390a46116168482604051602001611602929190615229565b604051602081830303815290604052613334565b50505092915050565b5f8282611635826116306008613233565b613259565b611648816116436008613233565b613259565b611676600460088787604051602001611662929190615185565b604051602081830303815290604052613315565b92505f61168161216c565b90508385877f05ba0a91a7a9fb5694c8585b4524748710c4fd8d8161a36f6438e992a66938c8846040516116b5919061493d565b60405180910390a46116e784826040516020016116d3929190615229565b604051602081830303815290604052613334565b50505092915050565b6116f861350d565b611701826135f3565b61170b8282613634565b5050565b5f8282611725826117206008613233565b613259565b611738816117336008613233565b613259565b611766600360088787604051602001611752929190615185565b604051602081830303815290604052613315565b92505f61177161216c565b90508385877fb338556f79cd1c7cc41da1198419213d940cfa5b9b5e4026b0db14ed5f5c1d7b846040516117a5919061493d565b60405180910390a46117d784826040516020016117c3929190615229565b604051602081830303815290604052613334565b50505092915050565b5f6117e9613752565b7f360894a13ba1a3210667c828492db98dca3e2076cc3735a920a3ca505d382bbc5f1b905090565b5f5f61181c846137d9565b90505f611828846137d9565b905061183c8561183784613233565b613259565b61184e8461184983613233565b613259565b80606481111561186157611860615254565b5b82606481111561187457611873615254565b5b148261187f83613233565b90916118c2576040517f8d9977f10000000000000000000000000000000000000000000000000000000081526004016118b99291906153cd565b60405180910390fd5b50505f6118cd61216c565b90506118fc60068488886040516020016118e8929190615185565b604051602081830303815290604052613315565b93508385877f03da418fb5a1edbcc289c75a571a7ac5a18ebb7938fd8b117a80cc52a6656fe484604051611930919061493d565b60405180910390a4611962848260405160200161194e92919061537b565b604051602081830303815290604052613334565b50505092915050565b5f655af3107a400034146119ab576040517f0590fdf300000000000000000000000000000000000000000000000000000000815260040160405180910390fd5b6119b48261343d565b82906119f6576040517f226df3e60000000000000000000000000000000000000000000000000000000081526004016119ed91906152c7565b60405180910390fd5b505f5f815480929190611a089061530d565b9190505550611a3b601a835f545f1b604051602001611a2791906153f4565b604051602081830303815290604052613315565b90505f611a4661216c565b9050815f547f1f39c455902f45a36b452dc0fe4d21ed5c7655e6ac79e52942d7f1d363c176b18584604051611a7c929190615354565b60405180910390a3611aae8282604051602001611a9a92919061537b565b604051602081830303815290604052613334565b50919050565b5f611ae78483604051602001611acb9291906154bd565b60405160208183030381529060405280519060200120846137fd565b90509392505050565b5f5f82611afd575f611b00565b60015b60ff165f1b9050611b11815f613856565b915050919050565b5f611b27825f1b6008613856565b9050919050565b5f611b4182611b3c5f613233565b613259565b611b6c60155f84604051602001611b5891906153f4565b604051602081830303815290604052613315565b90505f611b7761216c565b905081837fab89d8fc2490af977f2c8db1c7826880dbeec67c16e0cbff548eb4ac4b1a0e9883604051611baa919061493d565b60405180910390a3611bdc8282604051602001611bc89291906151e7565b604051602081830303815290604052613334565b50919050565b611bec8133611f26565b81339091611c31576040517f9532b4b6000000000000000000000000000000000000000000000000000000008152600401611c289291906153a6565b60405180910390fd5b50505f611c3c613411565b90506001816001015f8481526020019081526020015f205f6101000a81548160ff0219169083151502179055505f611c7261216c565b90507f6765f1b8ca6c099f7378c6e9b12cf8afac970d483c3faf81745e4b40c26148db8382604051611ca59291906154e4565b60405180910390a1611cda60298483604051602001611cc69392919061550b565b604051602081830303815290604052613334565b505050565b611ce76138e5565b611cf05f61396c565b565b5f8282611d0882611d036008613233565b613259565b611d1b81611d166008613233565b613259565b611d486008808787604051602001611d34929190615185565b604051602081830303815290604052613315565b92505f611d5361216c565b90508385877f99ece4883276939d8239ffc26785f08238c903a8432248757baa075684c18a3084604051611d87919061493d565b60405180910390a4611db98482604051602001611da5929190615229565b604051602081830303815290604052613334565b50505092915050565b5f8282611dd882611dd36008613233565b613259565b611deb81611de66008613233565b613259565b611e1860105f8787604051602001611e04929190615185565b604051602081830303815290604052613315565b92505f611e2361216c565b90508385877f1c6ba1ce3ec4acb3ea629d803d4201117c49fb503eab53da12f69e2acf5b6de584604051611e57919061493d565b60405180910390a4611e898482604051602001611e759291906151e7565b604051602081830303815290604052613334565b50505092915050565b5f5f8273ffffffffffffffffffffffffffffffffffffffff165f1b9050611eba816007613856565b915050919050565b5f7f0000000000000000000000000000000000000000000000000000000000000000905090565b5f5f5f8484604051602001611eff92919061558c565b604051602081830303815290604052805190602001209050805c9150819250505092915050565b5f611f318383611ee9565b80611f425750611f418383611143565b5b80611f525750611f5183612896565b5b905092915050565b5f7f0000000000000000000000000000000000000000000000000000000000000000905090565b5f611f8e83836007613a3d565b905092915050565b5f5f611fa0613a91565b9050805f015f9054906101000a900473ffffffffffffffffffffffffffffffffffffffff1691505090565b5f8282611fe182611fdc6008613233565b613259565b611ff481611fef6008613233565b613259565b612022600a6008878760405160200161200e929190615185565b604051602081830303815290604052613315565b92505f61202d61216c565b90508385877f34fde9e0b19fc23ffdc594c6297af091e77853cf7db0b9e74e9ca4709b8c080384604051612061919061493d565b60405180910390a4612093848260405160200161207f929190615229565b604051602081830303815290604052613334565b50505092915050565b5f82826120b2826120ad6008613233565b613259565b6120c5816120c06008613233565b613259565b6120f2600e5f87876040516020016120de929190615185565b604051602081830303815290604052613315565b92505f6120fd61216c565b90508385877fd1a7fea2502e48412632cb16e53709af37dce699f612478a300ce07f66be39ff84604051612131919061493d565b60405180910390a4612163848260405160200161214f9291906151e7565b604051602081830303815290604052613334565b50505092915050565b5f612175613ab8565b5f0154905090565b5f6018836040516020016121929291906155b7565b6040516020818303038152906040528051906020012090506121b481836137fd565b905092915050565b6040518060400160405280600581526020017f352e302e3000000000000000000000000000000000000000000000000000000081525081565b5f7f0000000000000000000000000000000000000000000000000000000000000000905090565b5f5f612227846137d9565b90505f612233846137d9565b90506122478561224284613233565b613259565b6122598461225483613233565b613259565b80606481111561226c5761226b615254565b5b82606481111561227f5761227e615254565b5b148261228a83613233565b90916122cd576040517f8d9977f10000000000000000000000000000000000000000000000000000000081526004016122c49291906153cd565b60405180910390fd5b50505f6122d861216c565b905061230760078488886040516020016122f3929190615185565b604051602081830303815290604052613315565b93508385877f38b11d2618335162a38c69b4740679672c6769855b493721bde217b679decd748460405161233b919061493d565b60405180910390a461236d848260405160200161235992919061537b565b604051602081830303815290604052613334565b50505092915050565b5f61238283835f613a3d565b905092915050565b6123948233611f26565b823390916123d9576040517f9532b4b60000000000000000000000000000000000000000000000000000000081526004016123d09291906153a6565b60405180910390fd5b50506123e58282613ae4565b5050565b5f6123f683836008613a3d565b905092915050565b5f7f0000000000000000000000000000000000000000000000000000000000000000905090565b5f61247e836008606481111561243e5761243d615254565b5b6001901b5f1b6007606481111561245857612457615254565b5b6001901b5f1b5f606481111561247157612470615254565b5b6001901b5f1b1717613259565b6124d6826008606481111561249657612495615254565b5b6001901b5f1b600760648111156124b0576124af615254565b5b6001901b5f1b5f60648111156124c9576124c8615254565b5b6001901b5f1b1717613259565b612503600d5f85856040516020016124ef929190615185565b604051602081830303815290604052613315565b90505f61250e61216c565b90508183857f708ddafcd1bb74fbd9425c548f2ddf7b4eabedf0a355a195f978c62cffcef08e84604051612542919061493d565b60405180910390a461257482826040516020016125609291906151e7565b604051602081830303815290604052613334565b5092915050565b5f612584613bcf565b90505f815f0160089054906101000a900460ff161590505f825f015f9054906101000a900467ffffffffffffffff1690505f5f8267ffffffffffffffff161480156125cc5750825b90505f60018367ffffffffffffffff161480156125ff57505f3073ffffffffffffffffffffffffffffffffffffffff163b145b90508115801561260d575080155b15612644576040517ff92ee8a900000000000000000000000000000000000000000000000000000000815260040160405180910390fd5b6001855f015f6101000a81548167ffffffffffffffff021916908367ffffffffffffffff1602179055508315612691576001855f0160086101000a81548160ff0219169083151502179055505b61269a86613be2565b83156126f4575f855f0160086101000a81548160ff0219169083151502179055507fc7f505b2f371ae2175ee4913f4499e1f2633a7b5936321eed1cdaeb6115181d260016040516126eb919061562e565b60405180910390a15b505050505050565b5f5f612707846137d9565b90505f612713846137d9565b90506127278561272284613233565b613259565b6127398461273483613233565b613259565b80606481111561274c5761274b615254565b5b82606481111561275f5761275e615254565b5b148261276a83613233565b90916127ad576040517f8d9977f10000000000000000000000000000000000000000000000000000000081526004016127a49291906153cd565b60405180910390fd5b50505f6127b861216c565b90506127e760058488886040516020016127d3929190615185565b604051602081830303815290604052613315565b93508385877ff076409d991f9ec7b637d4fdd15551d1540e5d1f1ff1e83aba2928f5819e2a988460405161281b919061493d565b60405180910390a461284d848260405160200161283992919061537b565b604051602081830303815290604052613334565b50505092915050565b60606128847f000000000000000000000000000000000000000000000000000000000000000060ff16613bf6565b905090565b5f655af3107a4000905090565b5f5f6128a0613411565b9050806001015f8481526020019081526020015f205f9054906101000a900460ff16915050919050565b5f5f6128d7858585613cc0565b90506129086019828787876040516020016128f493929190615647565b604051602081830303815290604052613315565b915061291482336134ca565b5f61291d61216c565b90508284867fc83a529a4d175ec95c80d26bdcec4aa26e59ee48505e0bacfd3c57890b38d20f8985604051612953929190615683565b60405180910390a4612985838260405160200161297192919061537b565b604051602081830303815290604052613334565b50509392505050565b60605f633b9aca007f00000000000000000000000000000000000000000000000000000000000000005f1c6129c391906156d7565b90506129cd611113565b6129d56110a1565b6129de83613bf6565b6040516020016129f0939291906157d5565b60405160208183030381529060405291505090565b5f8282612a1b82612a166008613233565b613259565b612a2e81612a296008613233565b613259565b612a5c600160088787604051602001612a48929190615185565b604051602081830303815290604052613315565b92505f612a6761216c565b90508385877fc5d2479f09be2fcbd429c540d90a2be6b7420bc2e964852544a575e9afc8f40784604051612a9b919061493d565b60405180910390a4612acd8482604051602001612ab9929190615229565b604051602081830303815290604052613334565b50505092915050565b7f000000000000000000000000000000000000000000000000000000000000000081565b5f612b538360086064811115612b1357612b12615254565b5b6001901b5f1b60076064811115612b2d57612b2c615254565b5b6001901b5f1b5f6064811115612b4657612b45615254565b5b6001901b5f1b1717613259565b612bab8260086064811115612b6b57612b6a615254565b5b6001901b5f1b60076064811115612b8557612b84615254565b5b6001901b5f1b5f6064811115612b9e57612b9d615254565b5b6001901b5f1b1717613259565b612bd8600c5f8585604051602001612bc4929190615185565b604051602081830303815290604052613315565b90505f612be361216c565b90508183857f7e19a33f96fa8c42243285baa16f68092c8c2dc3b81f263129ed827f7051712084604051612c17919061493d565b60405180910390a4612c498282604051602001612c359291906151e7565b604051602081830303815290604052613334565b5092915050565b5f8282612c6682612c616008613233565b613259565b612c7981612c746008613233565b613259565b612ca7601360088787604051602001612c93929190615185565b604051602081830303815290604052613315565b92505f612cb261216c565b90508385877f2297cd6b1ae4e1c7cadbb7db6e2324a1e45f0f4b6ad7f7c7c657537cb1fc89d684604051612ce6919061493d565b60405180910390a4612d188482604051602001612d04929190615229565b604051602081830303815290604052613334565b50505092915050565b5f8282612d3782612d326008613233565b613259565b612d4a81612d456008613233565b613259565b612d7760115f8787604051602001612d63929190615185565b604051602081830303815290604052613315565b92505f612d8261216c565b90508385877f59442dfd211213e44c3e6b5715d660007bda11c4b85cb2dc2738053776c8657284604051612db6919061493d565b60405180910390a4612de88482604051602001612dd49291906151e7565b604051602081830303815290604052613334565b50505092915050565b5f612dfb8261343d565b8290612e3d576040517f226df3e6000000000000000000000000000000000000000000000000000000008152600401612e3491906152c7565b60405180910390fd5b50612e6960178385604051602001612e5591906153f4565b604051602081830303815290604052613315565b9050612e7581336134ca565b5f612e7e61216c565b905081836064811115612e9457612e93615254565b5b60ff16857ffbfeab1405e5cf13d79743e8fa376879cb43d337735c24a9830f7d839fad91e284604051612ec7919061493d565b60405180910390a4612ef98282604051602001612ee592919061537b565b604051602081830303815290604052613334565b5092915050565b612f086138e5565b5f73ffffffffffffffffffffffffffffffffffffffff168173ffffffffffffffffffffffffffffffffffffffff1603612f78575f6040517f1e4fbdf7000000000000000000000000000000000000000000000000000000008152600401612f6f9190614e77565b60405180910390fd5b612f818161396c565b50565b5f8282612f9a82612f956008613233565b613259565b612fad81612fa86008613233565b613259565b612fda5f60088787604051602001612fc6929190615185565b604051602081830303815290604052613315565b92505f612fe561216c565b90508385877fa688269fb5e1e934be93b06c4df31eb561001f198fb73b39615f0c727ea6fb5084604051613019919061493d565b60405180910390a461304b8482604051602001613037929190615229565b604051602081830303815290604052613334565b50505092915050565b7f000000000000000000000000000000000000000000000000000000000000000073ffffffffffffffffffffffffffffffffffffffff1663cfbac7928333846040518463ffffffff1660e01b81526004016130b19392919061595e565b6020604051808303815f875af11580156130cd573d5f5f3e3d5ffd5b505050506040513d601f19601f820116820180604052508101906130f191906159ae565b816020015160200151826020015160400151836020015160600151909192613151576040517f849007eb00000000000000000000000000000000000000000000000000000000815260040161314893929190615a30565b60405180910390fd5b50505061315e8233613ae4565b5050565b5f8282613178826131736008613233565b613259565b61318b816131866008613233565b613259565b6131b9600b600887876040516020016131a5929190615185565b604051602081830303815290604052613315565b92505f6131c461216c565b90508385877f6f7f73e4205ead68dc59cd0a9ea2ac4f71a1c2dcd4262f0f1de33c4eb4cf30bb846040516131f8919061493d565b60405180910390a461322a8482604051602001613216929190615229565b604051602081830303815290604052613334565b50505092915050565b5f5f6001905082606481111561324c5761324b615254565b5b81901b5f1b915050919050565b6132638233611f26565b823390916132a8576040517f9532b4b600000000000000000000000000000000000000000000000000000000815260040161329f9291906153a6565b60405180910390fd5b50505f5f1b6132be6132b9846137d9565b613233565b821614156132cb836137d9565b82909161330f576040517f8d9977f10000000000000000000000000000000000000000000000000000000081526004016133069291906153cd565b60405180910390fd5b50505050565b5f613321848484611ab4565b905061332d81336134ca565b9392505050565b80805190602001205f1c613346613ab8565b5f018190555050565b606061335d8460ff16613bf6565b6133698460ff16613bf6565b6133758460ff16613bf6565b60405160200161338793929190615a6c565b60405160208183030381529060405290509392505050565b60605f6133ab83613e10565b90505f602067ffffffffffffffff8111156133c9576133c86149e7565b5b6040519080825280601f01601f1916602001820160405280156133fb5781602001600182028036833780820191505090505b5090508181528360208201528092505050919050565b5f5f7fea597c75836e9e4ed72237a0e6389c322017ee3f12368962289c35586a1d259890508091505090565b5f6008606481111561345257613451615254565b5b82606481111561346557613464615254565b5b148061349457505f606481111561347f5761347e615254565b5b82606481111561349257613491615254565b5b145b806134c35750600760648111156134ae576134ad615254565b5b8260648111156134c1576134c0615254565b5b145b9050919050565b5f82826040516020016134de92919061558c565b6040516020818303038152906040528051906020012090506001815d5f5c6001810182815d805f5d5050505050565b7f000000000000000000000000000000000000000000000000000000000000000073ffffffffffffffffffffffffffffffffffffffff163073ffffffffffffffffffffffffffffffffffffffff1614806135ba57507f000000000000000000000000000000000000000000000000000000000000000073ffffffffffffffffffffffffffffffffffffffff166135a1613e5e565b73ffffffffffffffffffffffffffffffffffffffff1614155b156135f1576040517fe07c8dba00000000000000000000000000000000000000000000000000000000815260040160405180910390fd5b565b6135fb611f96565b73ffffffffffffffffffffffffffffffffffffffff163373ffffffffffffffffffffffffffffffffffffffff1614613631575f5ffd5b50565b8173ffffffffffffffffffffffffffffffffffffffff166352d1902d6040518163ffffffff1660e01b8152600401602060405180830381865afa92505050801561369c57506040513d601f19601f820116820180604052508101906136999190615ac6565b60015b6136dd57816040517f4c9c8ce30000000000000000000000000000000000000000000000000000000081526004016136d49190614e77565b60405180910390fd5b7f360894a13ba1a3210667c828492db98dca3e2076cc3735a920a3ca505d382bbc5f1b811461374357806040517faa1d49a400000000000000000000000000000000000000000000000000000000815260040161373a91906149c6565b60405180910390fd5b61374d8383613eb1565b505050565b7f000000000000000000000000000000000000000000000000000000000000000073ffffffffffffffffffffffffffffffffffffffff163073ffffffffffffffffffffffffffffffffffffffff16146137d7576040517fe07c8dba00000000000000000000000000000000000000000000000000000000815260040160405180910390fd5b565b5f6008825f1c901c60ff1660648111156137f6576137f5615254565b5b9050919050565b5f7fffffffffffffffffffffffffffffffffffffffffffffffffffffffffffff00005f1b83169050600882606481111561383a57613839615254565b5b901b815f1c175f1b90505f60ff16815f1c175f1b905092915050565b5f613861838361217d565b905061386d81336134ca565b5f61387661216c565b9050817f2a14be14319dfd1a9f799604f633d6fb6a755c16dbb28e2b496e56d5523746478585846040516138ac93929190615af1565b60405180910390a26138de82826040516020016138ca92919061537b565b604051602081830303815290604052613334565b5092915050565b6138ed613f23565b73ffffffffffffffffffffffffffffffffffffffff1661390b611f96565b73ffffffffffffffffffffffffffffffffffffffff161461396a5761392e613f23565b6040517f118cdaa70000000000000000000000000000000000000000000000000000000081526004016139619190614e77565b60405180910390fd5b565b5f613975613a91565b90505f815f015f9054906101000a900473ffffffffffffffffffffffffffffffffffffffff16905082825f015f6101000a81548173ffffffffffffffffffffffffffffffffffffffff021916908373ffffffffffffffffffffffffffffffffffffffff1602179055508273ffffffffffffffffffffffffffffffffffffffff168173ffffffffffffffffffffffffffffffffffffffff167f8be0079c531659141344cd1fd0a4f28419497f9722a3daafe3b4186f6b6457e060405160405180910390a3505050565b5f655af3107a40003414613a7d576040517f0590fdf300000000000000000000000000000000000000000000000000000000815260040160405180910390fd5b613a88848484613f2a565b90509392505050565b5f7f9016d09d72d40fdae2fd8ceac6b6234c7706214fd39c1cd1e609a0528c199300905090565b5f5f7f424e67de01535191ae441dac30ebc840d30f78dda500964a3abe35b40c86270c90508091505090565b5f613aed613411565b90506001815f015f8581526020019081526020015f205f8473ffffffffffffffffffffffffffffffffffffffff1673ffffffffffffffffffffffffffffffffffffffff1681526020019081526020015f205f6101000a81548160ff0219169083151502179055505f613b5d61216c565b90507fed589e665852a8d765e944c21c754838396b55dd1ba06c2214e6966d73447db2848483604051613b9293929190615b26565b60405180910390a1613bc96028858584604051602001613bb59493929190615b5b565b604051602081830303815290604052613334565b50505050565b5f5f613bd96140fb565b90508091505090565b613bea614124565b613bf381614164565b50565b60605f6001613c04846141e8565b0190505f8167ffffffffffffffff811115613c2257613c216149e7565b5b6040519080825280601f01601f191660200182016040528015613c545781602001600182028036833780820191505090505b5090505f82602083010190505b600115613cb5578080600190039150507f3031323334353637383961626364656600000000000000000000000000000000600a86061a8153600a8581613caa57613ca96156aa565b5b0494505f8503613c61575b819350505050919050565b5f613cd384613cce5f613233565b613259565b613cdc836137d9565b905060086064811115613cf257613cf1615254565b5b816064811115613d0557613d04615254565b5b1480613d3457505f6064811115613d1f57613d1e615254565b5b816064811115613d3257613d31615254565b5b145b80613d63575060076064811115613d4e57613d4d615254565b5b816064811115613d6157613d60615254565b5b145b8190613da5576040517f226df3e6000000000000000000000000000000000000000000000000000000008152600401613d9c91906152c7565b60405180910390fd5b50613db08333611f26565b83339091613df5576040517f9532b4b6000000000000000000000000000000000000000000000000000000008152600401613dec9291906153a6565b60405180910390fd5b5050613e0982613e0483613233565b613259565b9392505050565b5f5f60ff835f1c169050601f811115613e55576040517fb3512b0c00000000000000000000000000000000000000000000000000000000815260040160405180910390fd5b80915050919050565b5f613e8a7f360894a13ba1a3210667c828492db98dca3e2076cc3735a920a3ca505d382bbc5f1b614339565b5f015f9054906101000a900473ffffffffffffffffffffffffffffffffffffffff16905090565b613eba82614342565b8173ffffffffffffffffffffffffffffffffffffffff167fbc7cd75a20ee27fd9adebab32041f755214dbc6bffa90cc0225b39da2e5c2d3b60405160405180910390a25f81511115613f1657613f10828261440b565b50613f1f565b613f1e6144fc565b5b5050565b5f33905090565b5f604084511015613f70576040517f08c379a0000000000000000000000000000000000000000000000000000000008152600401613f6790615c18565b60405180910390fd5b5f5f85806020019051810190613f869190615ca4565b91509150613f9681863387614538565b9250818314828446308933909192939495613fec576040517f5924bb27000000000000000000000000000000000000000000000000000000008152600401613fe396959493929190615cfe565b60405180910390fd5b505050505050613ffc8386611f26565b15839061403f576040517f215e3b6900000000000000000000000000000000000000000000000000000000815260040161403691906149c6565b60405180910390fd5b505f61404961216c565b90508573ffffffffffffffffffffffffffffffffffffffff163373ffffffffffffffffffffffffffffffffffffffff16857fd2a932f97be1df371965f7dd89e07e4c682ad8d021e54f03f84e116157f918db85856040516140ab929190615d5d565b60405180910390a46140dd84826040516020016140c992919061537b565b604051602081830303815290604052613334565b6140e78487613ae4565b6140f184336134ca565b5050509392505050565b5f7ff0c57e16840df040f15088dc2f81fe391c3923bec73e23a9662efc9c229c6a005f1b905090565b61412c614550565b614162576040517fd7e6bcf800000000000000000000000000000000000000000000000000000000815260040160405180910390fd5b565b61416c614124565b5f73ffffffffffffffffffffffffffffffffffffffff168173ffffffffffffffffffffffffffffffffffffffff16036141dc575f6040517f1e4fbdf70000000000000000000000000000000000000000000000000000000081526004016141d39190614e77565b60405180910390fd5b6141e58161396c565b50565b5f5f5f90507a184f03e93ff9f4daa797ed6e38ed64bf6a1f0100000000000000008310614244577a184f03e93ff9f4daa797ed6e38ed64bf6a1f010000000000000000838161423a576142396156aa565b5b0492506040810190505b6d04ee2d6d415b85acef81000000008310614281576d04ee2d6d415b85acef81000000008381614277576142766156aa565b5b0492506020810190505b662386f26fc1000083106142b057662386f26fc1000083816142a6576142a56156aa565b5b0492506010810190505b6305f5e10083106142d9576305f5e10083816142cf576142ce6156aa565b5b0492506008810190505b61271083106142fe5761271083816142f4576142f36156aa565b5b0492506004810190505b606483106143215760648381614317576143166156aa565b5b0492506002810190505b600a8310614330576001810190505b80915050919050565b5f819050919050565b5f8173ffffffffffffffffffffffffffffffffffffffff163b0361439d57806040517f4c9c8ce30000000000000000000000000000000000000000000000000000000081526004016143949190614e77565b60405180910390fd5b806143c97f360894a13ba1a3210667c828492db98dca3e2076cc3735a920a3ca505d382bbc5f1b614339565b5f015f6101000a81548173ffffffffffffffffffffffffffffffffffffffff021916908373ffffffffffffffffffffffffffffffffffffffff16021790555050565b60605f614418848461456e565b905080801561444e57505f61442b614582565b118061444d57505f8473ffffffffffffffffffffffffffffffffffffffff163b115b5b156144635761445b614589565b9150506144f6565b80156144a657836040517f9996b31500000000000000000000000000000000000000000000000000000000815260040161449d9190614e77565b60405180910390fd5b5f6144af614582565b11156144c2576144bd6145a6565b6144f4565b6040517fd6bda27500000000000000000000000000000000000000000000000000000000815260040160405180910390fd5b505b92915050565b5f341115614536576040517fb398979f00000000000000000000000000000000000000000000000000000000815260040160405180910390fd5b565b5f61454685308686866145b1565b9050949350505050565b5f614559613bcf565b5f0160089054906101000a900460ff16905090565b5f5f5f835160208501865af4905092915050565b5f3d905090565b606060405190503d81523d5f602083013e3d602001810160405290565b6040513d5f823e3d81fd5b5f5f86805190602001205f6040516020016145cd929190615da2565b6040516020818303038152906040528051906020012090505f6145f0828561466e565b9050614661816040518060400160405280600481526020017f65766d2f00000000000000000000000000000000000000000000000000000000815250468a8a8a60405160200161464596959493929190615dcd565b604051602081830303815290604052805190602001208561466e565b9250505095945050505050565b5f5f7fffffffffffffffffffffffffffffffffffffffffffffffffffffffffff00ffff5f1b90505f818516905060105f60ff16901b5f1b811792506146b383856137fd565b9250505092915050565b5f604051905090565b5f5ffd5b5f5ffd5b5f819050919050565b6146e0816146ce565b81146146ea575f5ffd5b50565b5f813590506146fb816146d7565b92915050565b5f5f60408385031215614717576147166146c6565b5b5f614724858286016146ed565b9250506020614735858286016146ed565b9150509250929050565b5f614749826146ce565b9050919050565b6147598161473f565b82525050565b5f6020820190506147725f830184614750565b92915050565b5f81519050919050565b5f82825260208201905092915050565b8281835e5f83830152505050565b5f601f19601f8301169050919050565b5f6147ba82614778565b6147c48185614782565b93506147d4818560208601614792565b6147dd816147a0565b840191505092915050565b5f6020820190508181035f83015261480081846147b0565b905092915050565b614811816146ce565b811461481b575f5ffd5b50565b5f8135905061482c81614808565b92915050565b5f73ffffffffffffffffffffffffffffffffffffffff82169050919050565b5f61485b82614832565b9050919050565b61486b81614851565b8114614875575f5ffd5b50565b5f8135905061488681614862565b92915050565b5f5f604083850312156148a2576148a16146c6565b5b5f6148af8582860161481e565b92505060206148c085828601614878565b9150509250929050565b5f8115159050919050565b6148de816148ca565b82525050565b5f6020820190506148f75f8301846148d5565b92915050565b6149068161473f565b82525050565b5f60208201905061491f5f8301846148fd565b92915050565b5f819050919050565b61493781614925565b82525050565b5f6020820190506149505f83018461492e565b92915050565b60658110614962575f5ffd5b50565b5f8135905061497381614956565b92915050565b5f5f6040838503121561498f5761498e6146c6565b5b5f61499c8582860161481e565b92505060206149ad85828601614965565b9150509250929050565b6149c0816146ce565b82525050565b5f6020820190506149d95f8301846149b7565b92915050565b5f5ffd5b5f5ffd5b7f4e487b71000000000000000000000000000000000000000000000000000000005f52604160045260245ffd5b614a1d826147a0565b810181811067ffffffffffffffff82111715614a3c57614a3b6149e7565b5b80604052505050565b5f614a4e6146bd565b9050614a5a8282614a14565b919050565b5f67ffffffffffffffff821115614a7957614a786149e7565b5b614a82826147a0565b9050602081019050919050565b828183375f83830152505050565b5f614aaf614aaa84614a5f565b614a45565b905082815260208101848484011115614acb57614aca6149e3565b5b614ad6848285614a8f565b509392505050565b5f82601f830112614af257614af16149df565b5b8135614b02848260208601614a9d565b91505092915050565b5f5f60408385031215614b2157614b206146c6565b5b5f614b2e85828601614878565b925050602083013567ffffffffffffffff811115614b4f57614b4e6146ca565b5b614b5b85828601614ade565b9150509250929050565b5f5f60408385031215614b7b57614b7a6146c6565b5b5f614b888582860161481e565b9250506020614b998582860161481e565b9150509250929050565b5f60208284031215614bb857614bb76146c6565b5b5f614bc584828501614965565b91505092915050565b606f8110614bda575f5ffd5b50565b5f81359050614beb81614bce565b92915050565b5f5f5f60608486031215614c0857614c076146c6565b5b5f614c1586828701614bdd565b9350506020614c2686828701614965565b925050604084013567ffffffffffffffff811115614c4757614c466146ca565b5b614c5386828701614ade565b9150509250925092565b614c66816148ca565b8114614c70575f5ffd5b50565b5f81359050614c8181614c5d565b92915050565b5f60208284031215614c9c57614c9b6146c6565b5b5f614ca984828501614c73565b91505092915050565b614cbb81614925565b8114614cc5575f5ffd5b50565b5f81359050614cd681614cb2565b92915050565b5f60208284031215614cf157614cf06146c6565b5b5f614cfe84828501614cc8565b91505092915050565b614d10816146ce565b8114614d1a575f5ffd5b50565b5f81359050614d2b81614d07565b92915050565b5f60208284031215614d4657614d456146c6565b5b5f614d5384828501614d1d565b91505092915050565b5f60208284031215614d7157614d706146c6565b5b5f614d7e8482850161481e565b91505092915050565b5f60208284031215614d9c57614d9b6146c6565b5b5f614da984828501614878565b91505092915050565b614dbb8161473f565b82525050565b5f602082019050614dd45f830184614db2565b92915050565b5f60ff82169050919050565b614def81614dda565b82525050565b5f602082019050614e085f830184614de6565b92915050565b5f5f60408385031215614e2457614e236146c6565b5b5f83013567ffffffffffffffff811115614e4157614e406146ca565b5b614e4d85828601614ade565b9250506020614e5e85828601614878565b9150509250929050565b614e7181614851565b82525050565b5f602082019050614e8a5f830184614e68565b92915050565b5f5f5f60608486031215614ea757614ea66146c6565b5b5f614eb486828701614d1d565b9350506020614ec58682870161481e565b9250506040614ed68682870161481e565b9150509250925092565b5f819050919050565b5f614f03614efe614ef984614832565b614ee0565b614832565b9050919050565b5f614f1482614ee9565b9050919050565b5f614f2582614f0a565b9050919050565b614f3581614f1b565b82525050565b5f602082019050614f4e5f830184614f2c565b92915050565b5f5ffd5b5f5ffd5b5f7fffffffff0000000000000000000000000000000000000000000000000000000082169050919050565b614f9081614f5c565b8114614f9a575f5ffd5b50565b5f81359050614fab81614f87565b92915050565b5f60808284031215614fc657614fc5614f54565b5b614fd06080614a45565b90505f614fdf8482850161481e565b5f830152506020614ff284828501614878565b602083015250604061500684828501614f9d565b604083015250606082013567ffffffffffffffff81111561502a57615029614f58565b5b61503684828501614ade565b60608301525092915050565b5f6080828403121561505757615056614f54565b5b6150616080614a45565b90505f61507084828501614878565b5f83015250602082013567ffffffffffffffff81111561509357615092614f58565b5b61509f84828501614fb1565b602083015250604082013567ffffffffffffffff8111156150c3576150c2614f58565b5b6150cf84828501614ade565b604083015250606082013567ffffffffffffffff8111156150f3576150f2614f58565b5b6150ff84828501614ade565b60608301525092915050565b5f5f60408385031215615121576151206146c6565b5b5f61512e8582860161481e565b925050602083013567ffffffffffffffff81111561514f5761514e6146ca565b5b61515b85828601615042565b9150509250929050565b5f819050919050565b61517f61517a826146ce565b615165565b82525050565b5f615190828561516e565b6020820191506151a0828461516e565b6020820191508190509392505050565b6151c16151bc8261473f565b615165565b82525050565b5f819050919050565b6151e16151dc82614925565b6151c7565b82525050565b5f6151f282856151b0565b60208201915061520282846151d0565b6020820191508190509392505050565b61522361521e8261473f565b615165565b82525050565b5f6152348285615212565b60208201915061524482846151d0565b6020820191508190509392505050565b7f4e487b71000000000000000000000000000000000000000000000000000000005f52602160045260245ffd5b6065811061529257615291615254565b5b50565b5f8190506152a282615281565b919050565b5f6152b182615295565b9050919050565b6152c1816152a7565b82525050565b5f6020820190506152da5f8301846152b8565b92915050565b7f4e487b71000000000000000000000000000000000000000000000000000000005f52601160045260245ffd5b5f61531782614925565b91507fffffffffffffffffffffffffffffffffffffffffffffffffffffffffffffffff8203615349576153486152e0565b5b600182019050919050565b5f6040820190506153675f8301856152b8565b615374602083018461492e565b9392505050565b5f615386828561516e565b60208201915061539682846151d0565b6020820191508190509392505050565b5f6040820190506153b95f8301856149b7565b6153c66020830184614e68565b9392505050565b5f6040820190506153e05f8301856152b8565b6153ed60208301846149b7565b9392505050565b5f6153ff828461516e565b60208201915081905092915050565b606f811061541f5761541e615254565b5b50565b5f81905061542f8261540e565b919050565b5f61543e82615422565b9050919050565b5f8160f81b9050919050565b5f61545b82615445565b9050919050565b61547361546e82615434565b615451565b82525050565b5f81519050919050565b5f81905092915050565b5f61549782615479565b6154a18185615483565b93506154b1818560208601614792565b80840191505092915050565b5f6154c88285615462565b6001820191506154d8828461548d565b91508190509392505050565b5f6040820190506154f75f8301856149b7565b615504602083018461492e565b9392505050565b5f6155168286615462565b600182019150615526828561516e565b60208201915061553682846151d0565b602082019150819050949350505050565b5f8160601b9050919050565b5f61555d82615547565b9050919050565b5f61556e82615553565b9050919050565b61558661558182614851565b615564565b82525050565b5f615597828561516e565b6020820191506155a78284615575565b6014820191508190509392505050565b5f6155c28285615462565b6001820191506155d2828461516e565b6020820191508190509392505050565b5f819050919050565b5f67ffffffffffffffff82169050919050565b5f61561861561361560e846155e2565b614ee0565b6155eb565b9050919050565b615628816155fe565b82525050565b5f6020820190506156415f83018461561f565b92915050565b5f615652828661516e565b602082019150615662828561516e565b602082019150615672828461516e565b602082019150819050949350505050565b5f6040820190506156965f830185614750565b6156a3602083018461492e565b9392505050565b7f4e487b71000000000000000000000000000000000000000000000000000000005f52601260045260245ffd5b5f6156e182614925565b91506156ec83614925565b9250826156fc576156fb6156aa565b5b828206905092915050565b5f81905092915050565b5f61571b82614778565b6157258185615707565b9350615735818560208601614792565b80840191505092915050565b7f5f000000000000000000000000000000000000000000000000000000000000005f82015250565b5f615775600183615707565b915061578082615741565b600182019050919050565b7f5f5f0000000000000000000000000000000000000000000000000000000000005f82015250565b5f6157bf600283615707565b91506157ca8261578b565b600282019050919050565b5f6157e08286615711565b91506157eb82615769565b91506157f78285615711565b9150615802826157b3565b915061580e8284615711565b9150819050949350505050565b61582481614851565b82525050565b615833816146ce565b82525050565b61584281614f5c565b82525050565b5f82825260208201905092915050565b5f61586282615479565b61586c8185615848565b935061587c818560208601614792565b615885816147a0565b840191505092915050565b5f608083015f8301516158a55f86018261582a565b5060208301516158b8602086018261581b565b5060408301516158cb6040860182615839565b50606083015184820360608601526158e38282615858565b9150508091505092915050565b5f608083015f8301516159055f86018261581b565b506020830151848203602086015261591d8282615890565b915050604083015184820360408601526159378282615858565b915050606083015184820360608601526159518282615858565b9150508091505092915050565b5f6060820190506159715f8301866149b7565b61597e6020830185614e68565b818103604083015261599081846158f0565b9050949350505050565b5f815190506159a881614c5d565b92915050565b5f602082840312156159c3576159c26146c6565b5b5f6159d08482850161599a565b91505092915050565b6159e281614f5c565b82525050565b5f82825260208201905092915050565b5f615a0282615479565b615a0c81856159e8565b9350615a1c818560208601614792565b615a25816147a0565b840191505092915050565b5f606082019050615a435f830186614e68565b615a5060208301856159d9565b8181036040830152615a6281846159f8565b9050949350505050565b5f615a778286615711565b9150615a8282615769565b9150615a8e8285615711565b9150615a9982615769565b9150615aa58284615711565b9150819050949350505050565b5f81519050615ac081614808565b92915050565b5f60208284031215615adb57615ada6146c6565b5b5f615ae884828501615ab2565b91505092915050565b5f606082019050615b045f8301866149b7565b615b1160208301856152b8565b615b1e604083018461492e565b949350505050565b5f606082019050615b395f8301866149b7565b615b466020830185614e68565b615b53604083018461492e565b949350505050565b5f615b668287615462565b600182019150615b76828661516e565b602082019150615b868285615575565b601482019150615b9682846151d0565b60208201915081905095945050505050565b7f496e70757420746f6f2073686f72742c2073686f756c64206265206174206c655f8201527f6173742036342062797465730000000000000000000000000000000000000000602082015250565b5f615c02602c83614782565b9150615c0d82615ba8565b604082019050919050565b5f6020820190508181035f830152615c2f81615bf6565b9050919050565b5f615c48615c4384614a5f565b614a45565b905082815260208101848484011115615c6457615c636149e3565b5b615c6f848285614792565b509392505050565b5f82601f830112615c8b57615c8a6149df565b5b8151615c9b848260208601615c36565b91505092915050565b5f5f60408385031215615cba57615cb96146c6565b5b5f615cc785828601615ab2565b925050602083015167ffffffffffffffff811115615ce857615ce76146ca565b5b615cf485828601615c77565b9150509250929050565b5f60c082019050615d115f8301896149b7565b615d1e60208301886149b7565b615d2b604083018761492e565b615d386060830186614e68565b615d456080830185614e68565b615d5260a0830184614e68565b979650505050505050565b5f6040820190508181035f830152615d7581856159f8565b9050615d84602083018461492e565b9392505050565b615d9c615d9782614dda565b615451565b82525050565b5f615dad828561516e565b602082019150615dbd8284615d8b565b6001820191508190509392505050565b5f615dd8828961516e565b602082019150615de88288615711565b9150615df482876151d0565b602082019150615e048286615575565b601482019150615e148285615575565b601482019150615e248284615575565b60148201915081905097965050505050505056fea26469706673582212203d38864a60b244f7f1a9d098f18f0839be2613442787ee07790596b34d3a1a5f64736f6c63430008210033","linkReferences":{}},"methodIdentifiers":{"UPGRADE_INTERFACE_VERSION()":"ad3cb1cc","allow(bytes32,address)":"b9496b62","allowTransient(bytes32,address)":"3e395cec","allowedTransient(bytes32,address)":"74b79a5a","asEaddress(address)":"7406f280","asEbool(bool)":"5d7d5397","asEuint256(uint256)":"67e7a37e","claimHandle(bytes32,(address,(bytes32,address,bytes4,bytes),bytes,bytes))":"f7e37faa","cleanTransientStorage()":"35334c23","eAdd(bytes32,bytes32)":"f4f9966b","eBitAnd(bytes32,bytes32)":"c948f8ce","eBitOr(bytes32,bytes32)":"56af8c7c","eBitXor(bytes32,bytes32)":"b887d7e3","eCast(bytes32,uint8)":"f106b99a","eDiv(bytes32,bytes32)":"52a532d3","eEq(bytes32,bytes32)":"e25800ab","eGe(bytes32,bytes32)":"8ff94ab4","eGt(bytes32,bytes32)":"05f6c427","eIfThenElse(bytes32,bytes32,bytes32)":"d9d017f6","eLe(bytes32,bytes32)":"725e1da5","eLt(bytes32,bytes32)":"e9be8faf","eMax(bytes32,bytes32)":"e7245a4a","eMin(bytes32,bytes32)":"3ea46639","eMul(bytes32,bytes32)":"21c8769e","eNe(bytes32,bytes32)":"c0516afa","eNot(bytes32)":"6a27be85","eRand(uint8)":"59928454","eRandBounded(bytes32,uint8)":"3cd8fdac","eRem(bytes32,bytes32)":"4b2ded1f","eRotl(bytes32,bytes32)":"8e40528c","eRotr(bytes32,bytes32)":"fa71e91d","eShl(bytes32,bytes32)":"71c0803a","eShr(bytes32,bytes32)":"239f7112","eSub(bytes32,bytes32)":"de195e2d","getEventCounter()":"3c82a978","getFee()":"ced72f87","getMajorVersion()":"cde749f4","getName()":"17d7de7c","getNextEventId()":"9df5be6e","getOpResultHandle(uint8,uint8,bytes)":"5ac0cb90","getTrivialEncryptHandle(bytes32,uint8)":"a8c3dc9e","getVersion()":"0d8e6e2c","getVersionedName()":"ddee96ef","incoVerifier()":"e1c3af7f","initialize(address)":"c4d66de8","isAllowed(bytes32,address)":"82027b6d","isRevealed(bytes32)":"d321c77a","majorVersion()":"af05a5c5","minorVersion()":"7436f3dc","newEaddress(bytes,address)":"888f0fad","newEbool(bytes,address)":"b8b2ab4b","newEuint256(bytes,address)":"ba76f2a9","owner()":"8da5cb5b","patchVersion()":"85464ae5","persistAllowed(bytes32,address)":"1e2f86ba","proxiableUUID()":"52d1902d","renounceOwnership()":"715018a6","reveal(bytes32)":"701fd0f1","salt()":"bfa0b133","transferOwnership(address)":"f2fde38b","upgradeToAndCall(address,bytes)":"4f1ef286"},"id":21}